:020000040800F2
:100000005009002005010008CD220008CF22000879
:10001000D3220008D7220008DB22000800000000DD
:10002000000000000000000000000000DF220008C7
:10003000E122000800000000E3220008E522000899
:100040001F0100081F0100081F0100081F01000810
:100050001F0100081F0100081F0100081F01000800
:100060001F0100081F0100081F0100081F010008F0
:100070001F0100081F0100081F0100081F010008E0
:100080001F0100081F010008E72200081F010008E7
:100090001F0100081F0100081F0100081F010008C0
:1000A0001F0100081F0100081F0100081F010008B0
:1000B0001F0100081F0100080B2E00081F01000887
:1000C0001F0100081F0100081F0100081F01000890
:1000D0001F0100081F0100081F0100080D2C000867
:1000E0001F0100081F0100081F010008DFF810D0E1
:1000F00002F0D2FE004800476B210008AFF30080F9
:10010000500900200648804706480047FEE7FEE702
:10011000FEE7FEE7FEE7FEE7FEE7FEE7FEE7FEE7B7
:1001200007020008ED0000080CB5002001900090C7
:100130006C48006840F480306A49086000BF694834
:10014000006800F4003000900198401C0190009875
:1001500018B90198B0F5A06FF1D16248006800F4B9
:10016000003010B10120009001E0002000900098C4
:10017000012843D15C48006840F010005A490860EB
:100180000846006820F0030008600846006840F058
:100190000200086053484068524948600846406879
:1001A00048600846406840F48060486008464068FF
:1001B00020F47C1048600846406840F4E81048602D
:1001C0000846006840F08070086000BF454800683D
:1001D00000F000700028F9D04248406820F0030089
:1001E000404948600846406840F00200486000BF4F
:1001F0003C48406800F00C000828F9D10CBD10B54F
:10020000FFF792FF10BD10B53648006840F00100BE
:10021000344908600846406834490840314948601C
:1002200008460068324908402E49086008460068C0
:1002300020F4802008600846406820F4FE004860F2
:100240004FF41F008860FFF7DAFF4FF00060294984
:10025000086010BD10B5002100200022214B5B6812
:1002600003F00C0121B1042906D0082928D107E0A8
:10027000214B224C236027E01F4B204C236023E0BE
:10028000184B5B6803F47010164B5B6803F4803204
:10029000022303EB904022B9194B4343174C2360D0
:1002A0000DE0104B5B6803F4003323B1144B434360
:1002B000124C236003E0104B4343104C236003E0D7
:1002C0000D4B0E4C236000BF00BF064B5B68C3F3B1
:1002D00003130C4CE15C094B1B68CB40074C2360BB
:1002E00010BD000000100240002002400000FFF896
:1002F000FFFFF6FE08ED00E000127A00000000208B
:1003000000093D000400002031490143314A1160D9
:10031000704770B5002100230F22C47804B32D4C20
:10032000246804F4E064C4F5E064210AC1F1040324
:10033000CA40447804FA03F1847814402143090147
:10034000254C0678A155047804F01F050124AC4023
:1003500005786D11AD0005F1E025C5F8004109E013
:10036000047804F01F050124AC401C4D067876117A
:1003700045F8264070BD1A4A0A400243154B1B1F20
:100380001A60704739B1134A121D12680243114BAB
:100390001B1D1A6006E00F4A121D126882430D4BA6
:1003A0001B1D1A607047042808D14FF0E02109692D
:1003B00041F004014FF0E022116107E04FF0E0212D
:1003C000096921F004014FF0E0221161704700003B
:1003D0000000FA050CED00E000E400E080E100E040
:1003E00080FFFF1F10B50446FA48844208D101215E
:1003F000401500F055FD0021601500F051FD17E09B
:10040000F548844208D10121001500F049FD002182
:10041000201500F045FD0BE0F048844208D1012191
:10042000C80300F03DFD00214FF4004000F038FD0E
:1004300010BD30B50246002000235068E84C204033
:100440000D790C6844EA0524204350609068E54C1F
:100450002040D1E902542C434D7944EA450420431D
:100460009060D06A20F470000C7C641EE4B22343D8
:1004700040EA0350D06230BD00210160017141713A
:100480008160C16001210174704721B1826842F02E
:100490000102826003E0826822F0010282607047FC
:1004A00021B1826842F48072826003E0826822F4A3
:1004B00080728260704710B50023CBB21AB14468D5
:1004C0001C43446002E044689C43446010BD816862
:1004D00041F0080181607047014600208A6802F0FF
:1004E00008020AB1012000E000207047816841F055
:1004F000040181607047014600208A6802F004020E
:100500000AB1012000E00020704721B1826842F466
:10051000A002826003E0826822F4A0028260704739
:10052000014600208A6802F480020AB1012000E03E
:100530000020704710B50A4600210023416821F4CD
:100540006041531E41EA4331416010BD21B1426810
:1005500042F40062426003E0426822F400624260BA
:100560007047F0B504460D4600200021092D11DD2D
:10057000E068A5F10A0606EB4607072606FA07F12A
:100580008843A5F10A0606EB460603FA06F108437E
:10059000E0600CE0206905EB4507072606FA07F145
:1005A000884305EB450603FA06F108432061072A54
:1005B0000FDA606B561E06EB86071F2606FA07F158
:1005C0008843561E06EB860605FA06F1084360636B
:1005D00022E00D2A0FDA206BD61F06EB86071F26B6
:1005E00006FA07F18843D61F06EB860605FA06F1E0
:1005F0000843206310E0E06AA2F10D0606EB8607CF
:100600001F2606FA07F18843A2F10D0606EB8606BF
:1006100005FA06F10843E062F0BD21B1826842F4B8
:100620008012826003E0826822F480128260704748
:100630000146C86C80B2704766484C30006870470D
:1006400021B1426842F48062426003E0426822F4D1
:1006500080624260704721B1426842F48052426039
:1006600003E0426822F48052426070470A4600214B
:10067000816821F4E04111438160704721B18268B3
:1006800042F40042826003E0826822F40042826009
:10069000704721B1826842F40212826003E08268EE
:1006A00022F4021282607047014600208A6802F438
:1006B00000120AB1012000E000207047F0B50446A6
:1006C0001546002000220026092911DDE068A1F16D
:1006D0000A0707EB470C072707FA0CF29043A1F132
:1006E0000A0707EB470703FA07F21043E0600CE044
:1006F000206901EB410C072707FA0CF2904301EB4C
:10070000410703FA07F210432061A06BC0F30156C2
:10071000EF1C06F1010CA7EB0C0707EB870C1F275A
:1007200007FA0CF29043EF1C06F1010CA7EB0C0743
:1007300007EB870701FA07F21043A063F0BD10B57D
:100740000A4600210023816B21F44011531E41EA27
:100750000351816310BD08B5002300930090009BF6
:100760000B440093009B1A6008BD08B502460020A8
:100770000090009201F12800009B1844009000981E
:10078000006880B208BD0A4600214168164B194036
:100790001143416070474162826270470A460021FE
:1007A000416821F01F0111434160704740B1094980
:1007B0000831096841F40001064A0832116007E077
:1007C00004490831096821F40001024A0832116025
:1007D000704700000024014000280140003C014017
:1007E000FFFEF0FFFDF7F1FFFFFD3FFF0246002097
:1007F00013680B400BB1012000E000207047CA4392
:100800000260704770B502460020002300240B12DE
:100810005568CEB205EA060415681D4015B10CB145
:10082000012000E0002070BD00220A12D3430360C3
:100830007047000010B50446CC48844208D101211D
:10084000042000F02DFB0021042000F029FB46E0ED
:10085000C748844208D10121082000F021FB002173
:10086000082000F01DFB3AE0C248844208D1012173
:10087000102000F015FB0021102000F011FB2EE0ED
:10088000BD48844208D10121202000F009FB00214D
:10089000202000F005FB22E0B848844208D1012165
:1008A000402000F0FDFA0021402000F0F9FA16E0A7
:1008B000B348844208D10121802000F0F1FA0021E0
:1008C000802000F0EDFA0AE0AE48844207D1012111
:1008D000801500F0E5FA0021A01500F0E1FA10BD46
:1008E00010B50121084600F0DBFA0021012000F0DC
:1008F000D7FA10BD2DE9F041024600250026002060
:1009000000230024002791F803C00CF00F0591F894
:1009100003C00CF0100CBCF1000F03D091F802C022
:100920004CEA050591F800C0BCF1000F31D0146805
:1009300000202BE04FF0010C0CFA00F3B1F800C0DE
:100940000CEA03069E4220D183004FF00F0C0CFAF4
:1009500003F7BC4305FA03FC4CEA040491F803C016
:10096000BCF1280F06D14FF0010C0CFA00FCC2F8C4
:1009700014C00AE091F803C0BCF1480F05D14FF054
:10098000010C0CFA00FCC2F810C0401C0828D1D39E
:100990001460B1F800C0BCF1FF0F34DD54680020D2
:1009A0002EE000F1080C4FF0010808FA0CF3B1F842
:1009B00000C00CEA03069E4221D183004FF00F0CC9
:1009C0000CFA03F7BC4305FA03FC4CEA040491F863
:1009D00003C0BCF1280F05D100F1080C08FA0CF88F
:1009E000C2F8148091F803C0BCF1480F07D100F1A0
:1009F000080C4FF0010808FA0CF8C2F81080401CEF
:100A00000828CED35460BDE8F0814FF6FF71018015
:100A1000022181700421C170704702460020936852
:100A20000B400BB1012000E00020704701468868B0
:100A300080B2704702460020D3680B400BB1012002
:100A400000E0002070470146C86880B2704701612D
:100A50007047416170470AB1016100E04161704730
:100A6000C16070474FF480320A43826181618261C4
:100A700082698269704702460020434B18684FF62E
:100A80008073184040EA021008433F4B18607047DB
:100A90003E49C8617047F0B50A4600230024002192
:100AA000002500F00046B6F1004F02D1364EF16944
:100AB00001E0354E7168C0F3034583B200F440167F
:100AC000B6F5401F08D121F070612F4E766826F0F0
:100AD00070662D4F7E6012E000F48016B6F5801F20
:100AE00006D1032606FA05F4A14341F0706106E041
:100AF000460D360103FA06F6B14341F0706122B1AA
:100B0000460D360103FA06F6314300F00046B6F111
:100B1000004F02D11C4EF16101E01B4E7160F0BD2F
:100B200030B500228B071C0F0F2303FA04F2164B7B
:100B300008338C1053F824309343134C08348D1031
:100B400044F8253023468C1053F824308C07240FAA
:100B500000FA04F423430C4C08348D1044F825307B
:100B600030BD0A49DC3108607047000000080140D0
:100B7000000C014000100140001401400018014029
:100B8000001C014000200140000001400000204204
:100B9000DF48006840F00100DD4908600846406811
:100BA000DC490840DA49486008460068DA490840EC
:100BB000D74908600846006820F48020086008468D
:100BC000406820F4FE0048604FF41F0088607047C2
:100BD000CF49096821F48031CD4A11601146096876
:100BE00021F480211160B0F5803F03D0B0F5802F53
:100BF0000ED106E0C649096841F48031C44A11604B
:100C000007E0C349096841F4A021C14A116000E02E
:100C100000BF00BF704710B501460022002300202E
:100C20004A11012A02D1BA4C236806E0022A02D1F5
:100C3000B74C236A01E0B64C636A01F01F0201243D
:100C400094401C400CB1012000E0002010BD38B5DC
:100C5000002000900024002500BF3120FFF7DBFFBB
:100C600005460098401C00900098B0F5A06F01D098
:100C7000002DF2D03120FFF7CEFF08B1012400E0B3
:100C80000024204638BD01460020A14A106820F00B
:100C9000F80040EAC10010607047A0490860704742
:100CA000024600209A4B586820F47C1042EA010367
:100CB0001843974B5860704798490866704701463B
:100CC0000020934A506820F00300084350607047AA
:100CD0008F48406800F00C007047014600208C4AA5
:100CE000506820F0F0000843506070470146002033
:100CF000874A506820F4E06008435060704701461E
:100D00000020834A506820F4605040EAC1005060DF
:100D1000704729B17E4A527A02437D4B5A7204E0F1
:100D20007B4A527A82437A4B5A7270477B49D83158
:100D30000860704701460020754A506820F4404022
:100D40000843506070470021714A20321170704A88
:100D500082F82010012802D004280AD104E00121E1
:100D60006B4A2032117005E00521694A203211706A
:100D700000E000BF00BF70476949086070476449E0
:100D8000096A0143624A1162704765494439086043
:100D9000704730B500210022002400235C4D6D68AF
:100DA00005F00C0121B1042905D0082923D105E063
:100DB0005C4D056022E05B4D05601FE0544D6D68A1
:100DC00005F47012524D6D6805F48034022505EB70
:100DD00092421CB9544D554305600BE04C4D6D6873
:100DE00005F400351DB1504D5543056002E04D4DF1
:100DF0005543056002E04B4D056000BF00BF444D08
:100E00006D6805F0F0010909484D6B5C0568DD402F
:100E100045603F4D6D6805F4E061090A434D6B5C28
:100E20004568DD4085603A4D6D6805F46051C90A3A
:100E30003E4D6B5C4568DD40C560354D6D6805F421
:100E40004041890B3A4D6B5CC568B5FBF3F5056114
:100E500030BD29B12E4A526902432D4B5A6104E03C
:100E60002B4A526982432A4B5A61704729B1284A5A
:100E700092690243264B9A6104E0254A92698243B3
:100E8000234B9A61704729B1214AD2690243204B12
:100E9000DA6104E01E4AD26982431D4BDA61704771
:100EA00029B11B4AD2680243194BDA6004E0184AA0
:100EB000D2688243164BDA60704729B1144A12692E
:100EC0000243134B1A6104E0114A12698243104B2A
:100ED0001A61704712494039086070470F49C86469
:100EE00070470B49C87170470948406A40F08070EC
:100EF00007494862704701460020054A92680A4047
:100F00000AB1012000E00020704701498872704753
:100F1000001002400000FFF8FFFFF6FE0000424212
:100F20008004424200127A0000093D0014000020B3
:100F30002400002010B50446FE48844208D1012157
:100F4000C014FFF7ADFF0021E014FFF7A9FFC4E0D4
:100F5000B4F1804F08D101210846FFF7AEFF002110
:100F60000120FFF7AAFFB8E0F348844208D101212D
:100F70000220FFF7A2FF00210220FFF79EFFACE056
:100F8000EE48844208D101210420FFF796FF00219A
:100F90000420FFF792FFA0E0E948844208D1012134
:100FA0000820FFF78AFF00210820FFF786FF94E062
:100FB000E448844208D101211020FFF77EFF002180
:100FC0001020FFF77AFF88E0DF48844208D1012132
:100FD0002020FFF772FF00212020FFF76EFF7CE04A
:100FE000DA48844208D101214014FFF759FF00215B
:100FF0006014FFF755FF70E0D548844209D1012104
:10100000C804FFF74DFF00214FF40020FFF748FF11
:1010100063E0D048844209D101210805FFF740FF71
:1010200000214FF48010FFF73BFF56E0CA4884428E
:1010300009D101214805FFF733FF00214FF40010CB
:10104000FFF72EFF49E0C548844208D10121402026
:10105000FFF733FF00214020FFF72FFF3DE0C0489E
:10106000844208D101218020FFF727FF0021802042
:10107000FFF723FF31E0BB48844208D101218015EE
:10108000FFF71BFF0021A015FFF717FF25E0B6486B
:10109000844209D101210804FFF702FF00214FF427
:1010A0008030FFF7FDFE18E0B048844209D10121ED
:1010B0004804FFF7F5FE00214FF40030FFF7F0FE83
:1010C0000BE0AB48844208D101218804FFF7E8FE19
:1010D00000214FF48020FFF7E3FE10BD00220288BC
:1010E000944B98420ED0994B98420BD0B0F1804F60
:1010F00008D0914B984205D0904B984202D0904B2B
:10110000984204D14FF68F731A404B881A438D4B87
:10111000984207D08C4B984204D04FF6FF431A40B8
:10112000CB881A4302808B8883850B880385814B8B
:1011300098420BD0854B984208D08B4B984205D0F3
:101140008A4B984202D08A4B984201D10B7A03868F
:1011500001238382704770B5002400220023058C90
:101160004FF6FE7635400584028C8388048B4FF65B
:101170008F752C40B51E2C400D882C43751E2A40BF
:101180000D892A434D882A436A4DA8420BD06F4DE2
:10119000A84208D0744DA84205D0744DA84202D090
:1011A000734DA84213D14FF6F7752A404D892A4353
:1011B0004FF6FB752A408D882A434FF6FF652B407A
:1011C0004FF6FF552B408D892B43CD892B438380D0
:1011D0000483CD888586028470BD70B5002400220A
:1011E0000023058C4FF6EF7635400584028C83880A
:1011F000048B48F6FF752C404FF6FF452C400D88B8
:101200004FF6FF7606EA05252C434FF6DF752A4098
:101210000D8906EA05152A434D8806EA05152A4375
:10122000444DA84202D0494DA8421DD14FF67F75CA
:101230002A404D894FF6FF7606EA05152A434FF6F8
:10124000BF752A408D8806EA05152A434FF6FF35FB
:101250002B404FF2FF752B408D8906EA85052B4305
:10126000CD8906EA85052B4383800483CD880587D5
:10127000028470BD70B5002400220023058C4FF657
:10128000FF6635400584028C8388848B4FF68F750A
:101290002C404FF6FC752C400D882C434FF6FF5523
:1012A0002A400D894FF6FF7606EA05252A434D8828
:1012B00006EA05252A431F4DA84202D0234DA84225
:1012C0001DD14FF2FF752A404D894FF6FF7606EA91
:1012D00005252A434FF6FF352A408D8806EA052565
:1012E0002A434EF6FF752B404DF6FF752B408D8936
:1012F00006EA05152B43CD8906EA05152B438380A5
:101300008483CD888587028470BD70B50022002358
:101310000024058C4EF6FF7635400584038C8488C6
:10132000828B48F6FF752A404FF6FF452A400D880C
:1013300020E00000002C01400004004000080040B4
:10134000000C004000100040001400400034014038
:10135000004C014000500140005401400018004082
:10136000001C0040002000400040014000440140BB
:10137000004801404FF6FF7606EA05252A434DF660
:10138000FF752B400D8906EA05352B434D8806EA8B
:1013900005352B43FA4DA84202D0FA4DA84208D198
:1013A0004BF6FF752C408D894FF6FF7606EA8515C2
:1013B0002C4384808283CD88A0F84050038470BD84
:1013C000828B4FF2FF331A408283828B4FF6FF737A
:1013D00003EA01231A4382837047F0B50C46154691
:1013E000002200210026078C4EF6FF7C07EA0C073E
:1013F0000784828B018C4FF6FF7707EA043640F6AC
:10140000FF473A404FF6FF7707EA05273A434FF682
:10141000FF7707EA03373A43D94FB8420ED0D94F86
:10142000B8420BD0B0F1804F08D0D74FB84205D0AA
:10143000D64FB84202D0D64FB84206D14DF6FF770C
:10144000394046F48057394305E047F6FF573940A5
:1014500044F48057394382830184F0BD828B4FF678
:10146000F3731A408283828B0A4382837047F0B5FC
:101470000C461546002200210026078C4FF6FF6C13
:1014800007EA0C070784828B018C4FF6FF7707EA87
:1014900004264FF60C773A404FF6FF7707EA03171A
:1014A0002F433A43B64FB8420ED0B64FB8420BD096
:1014B000B0F1804F08D0B44FB84205D0B34FB84216
:1014C00002D0B34FB84206D14FF6FF57394046F429
:1014D0008077394305E04FF2FF57394044F4807775
:1014E000394382830184F0BD028B4FF2FF331A40EF
:1014F0000283028B4FF6FF7303EA01231A43028330
:101500007047F0B50C461546002200210026078CD6
:101510004FF6EF7C07EA0C070784028B018C4FF62D
:10152000FF7707EA041640F6FF473A404FF6FF7789
:1015300007EA03373A434FF6FF7707EA05273A43AE
:101540008F4FB8420ED08F4FB8420BD0B0F1804FC2
:1015500008D08D4FB84205D08C4FB84202D08C4F86
:10156000B84206D14FF6DF77394046F010073943CD
:1015700005E04FF65F77394044F0100739430283A6
:101580000184F0BD028B4FF6F3731A400283028B85
:101590000A4302837047F0B50C461546002200212D
:1015A000068C4FF6FE773E400684028B018C4FF688
:1015B0000C7632407E1C06EA03162E433243704EF0
:1015C000B0420ED06F4EB0420BD0B0F1804F08D079
:1015D0006D4EB04205D06D4EB04202D06C4EB0425E
:1015E00006D14FF6FD76314044F00106314305E067
:1015F0004FF6F576314044F0010631430283018411
:10160000F0BD70B505460C465D4885420ED05D487C
:1016100085420BD0B5F1804F08D05B48854205D09C
:101620005A48854202D05A48854200D100E000BFA6
:10163000208850B92389A28861882846FFF7ABFF2C
:10164000E1882846FFF79EFF25E0208804280AD17C
:101650002389A28861882846FFF753FFE18828463E
:10166000FFF742FF17E0208808280AD12389A288C3
:1016700061882846FFF7FBFEE1882846FFF7EEFE6B
:1016800009E02389A28861882846FFF7A6FEE18841
:101690002846FFF795FE70BD2DE9F04105460C4642
:1016A00000260127608808B9022600E00026A088ED
:1016B000012801D1022700E001272088A0B9238951
:1016C000A28861882846FFF766FFE1882846FFF771
:1016D00059FF23893A4631462846FFF712FFE18831
:1016E0002846FFF701FF13E02389A2886188284676
:1016F000FFF707FFE1882846FFF7F6FE23893A4601
:1017000031462846FFF747FFE1882846FFF73AFFB2
:10171000BDE8F0810A884B881A438B881A43CB882E
:101720001A430B891A434B891A438B891A43A0F831
:10173000442070474FF6FF71818000210180C180F5
:101740004180017270470021018041808180C18009
:10175000018141818181C1817047002101804180E7
:10176000012181800021C180018170470021018019
:1017700041808180C1800181418181817047000069
:10178000002C0140003401400004004000080040EB
:10179000000C004021B1028842F00102028004E006
:1017A00002884FF6FE731A400280704731B1B0F8DC
:1017B000442042F40042A0F8442005E0B0F8442060
:1017C000C2F30E02A0F8442070471AB183890B437C
:1017D000838102E083898B438381704781827047D4
:1017E00041EA0203A0F8483070471AB183890B43DD
:1017F000838102E083898B438381704701894FF69F
:10180000F8721140018170470A46002101894FF6A4
:101810008F73194011430181704730B504460D465E
:1018200029462046FFF7F0FF208940F0070020817D
:1018300030BD2DE9F04104460D4616461F46602D89
:1018400006D13B46012231462046FFF75AFE05E00D
:101850003B46012231462046FFF79DFE29462046A1
:10186000FFF7D2FF208940F007002081BDE8F0811A
:1018700030B50C4600210189C9B24FF6FF7505EA63
:101880000325154325432943018130BD2DE9F0414E
:1018900005460E4617469846002443463A463146CA
:1018A0002846FFF7E5FF2C894FF6F870044044F016
:1018B00007044FF68F70044044F070042C81BDE89B
:1018C000F081F0B504460D4616461F463B463246AB
:1018D00029462046FFF7CCFF208940F48040208134
:1018E000F0BD0185828270470A46002101884FF6CB
:1018F0008F731940114301807047F0B50C461546AF
:101900001E460021002200230189028B038C4FF622
:10191000F877394021434FF6FC473A4040F201172F
:101920003A434FF6DD773B404FF6FF7707EA06175D
:101930002F433B43018102830384F0BD0A4600210B
:10194000018B4FF68F7319401143018370470A468C
:101950000021018B48F6FF7319404FF6FF7303EA2D
:1019600002231943018370470A460021818B4FF6F9
:101970008F7319401143818370470A460021818B80
:1019800048F6FF7319404FF6FF7303EA0223194329
:101990008183704721B1028842F08002028004E016
:1019A00002884FF67F731A400280704721B1828807
:1019B00042F00402828004E082884FF6FB731A40F2
:1019C0008280704721B1828842F00802828004E060
:1019D00082884FF6F7731A408280704721B182885F
:1019E00042F00102828004E082884FF6FE731A40C2
:1019F000828070470A460021018B4FF6F773194029
:101A00001143018370470A460021018B4FF2FF7397
:101A100019404FF6FF7303EA02231943018370470D
:101A20000A460021818B4FF6F773194011438183D9
:101A300070470A460021818B4FF2FF7319404FF621
:101A4000FF7303EA02231943818370470A4600218A
:101A5000018B4FF6FB7319401143018370470A460F
:101A60000021018B4FF6FF3319404FF6FF7303EA55
:101A700002231943018370470A460021818B4FF6E8
:101A8000FB7319401143818370470A460021818B03
:101A90004FF6FF3319404FF6FF7303EA0223194351
:101AA000818370470A460021018B4FF67F731940EE
:101AB0001143018370470A460021018BC1F30E01D7
:101AC0004FF6FF7303EA02231943018370470A4666
:101AD0000021818B4FF67F7319401143818370473A
:101AE0000A460021818BC1F30E014FF6FF7303EA12
:101AF00002231943818370470A460021018C4FF667
:101B0000FD7319401143018470470A460021018C7E
:101B10004FF6F77319401143018470470A460021BC
:101B2000018C4FF6DF7319404FF6FF7303EA02137F
:101B30001943018470470A460021018C4FF67F73D8
:101B400019404FF6FF7303EA0213194301847047EB
:101B50000A460021018C4FF6FF5319404FF6FF73E0
:101B600003EA02231943018470470A460021018CCD
:101B70004FF2FF7319404FF6FF7303EA0223194334
:101B8000018470470A460021018C4DF6FF7319400D
:101B90004FF6FF7303EA023319430184704730B5EF
:101BA000002301248C40A3B2048C9C430484048C45
:101BB00002FA01F5ADB22C43048430BD30B50023E8
:101BC00004248C40A3B2048C9C430484048C02FA49
:101BD00001F5ADB22C43048430BD70B5034600203E
:101BE00000241846183001258D40ACB21D8CA54349
:101BF0001D8409B1082909D100EB6100056825F0B1
:101C0000700505600568154305600EE00D1FC5F3FE
:101C10004E052844056825F4E045056005684FF643
:101C2000FF7606EA02263543056070BD21B10288C1
:101C300042F00202028004E002884FF6FD731A406F
:101C40000280704721B1028842F00402028004E061
:101C500002884FF6FB731A400280704721B18288D8
:101C600042F08002828004E082884FF67F731A403F
:101C70008280704702884FF6F7731A40028002880C
:101C80000A430280704782884FF68F731A40828021
:101C900082880A438280704702894FF6F8731A409F
:101CA000028102890A430281704702894FF67F73DD
:101CB0001A40028102890A43028170478184704779
:101CC000818570478186704701877047818770479B
:101CD000A0F84010704702884FF6FF431A40028078
:101CE00002880A43028070470146888E7047014689
:101CF000088F70470146888F70470146B1F8400051
:101D000070470146888C70470146088D704702462F
:101D10000020138A0B400BB1012000E00020704727
:101D2000CA430282704730B50246002000230024D7
:101D3000158A05EA0103958905EA010413B10CB17E
:101D4000012000E0002030BDCA430282704700003D
:101D500010B50446FB48844209D101218803FFF7EE
:101D60009FF800214FF48040FFF79AF832E0F648E0
:101D7000844209D101214804FFF79FF800214FF464
:101D80000030FFF79AF825E0F048844209D101219C
:101D90008804FFF792F800214FF48020FFF78DF8B8
:101DA00018E0EB48844209D10121C804FFF785F807
:101DB00000214FF40020FFF780F80BE0E548844253
:101DC00008D101210805FFF778F800214FF48010B1
:101DD000FFF773F810BD2DE9F04786B005460E46B3
:101DE0000024A24600BFA1460027B08900B100BF71
:101DF0002F462C8A4CF6FF700440F08804432C8256
:101E0000AC894EF6F3100440B088318908437189DB
:101E100008430443AC81AC8A4FF6FF400440B089CC
:101E20000443AC8201A8FEF7B4FFC648874202D142
:101E3000DDF810A001E0DDF80CA0A88900F4004056
:101E400040B10AEBCA0000EB0A1031684900B0FB50
:101E5000F1F807E00AEBCA0000EB0A1031688900CC
:101E6000B0FBF1F86420B8FBF0F004012009642114
:101E700001FB1089A88900F4004040B1322000EB3A
:101E8000C900B0FBF1F000F00700044308E0322085
:101E900000EB09106421B0FBF1F000F00F000443E7
:101EA0002C8106B0BDE8F0874FF416510160002187
:101EB0008180C18001810C21418100218181704795
:101EC00010B502460020108A4FF2FF0318400B881D
:101ED0004C8823438C882343CC88234318431082A7
:101EE00010BD0021018041808180C180704721B1F7
:101EF000828942F40052828104E082894DF6FF73A8
:101F00001A4082817047F0B5034600240026002560
:101F1000002040F66A17B94200D100BF1846C1F34D
:101F2000421401F01F06012707FA06F5012C01D122
:101F30000C3004E0022C01D1103000E014301AB152
:101F400007682F43076002E00768AF430760F0BDF2
:101F50001AB1838A0B43838202E0838A8B43838294
:101F60007047028A4FF6F0731A400282028A0A43CF
:101F70000282704782894FF2FF731A408281828900
:101F80000A438281704721B1828942F00202828134
:101F900004E082894FF6FD731A4082817047028AFD
:101FA0004FF6DF731A400282028A0A4302827047A8
:101FB00021B1028A42F48042028204E0028A4BF696
:101FC000FF731A4002827047C1F308028280704793
:101FD00001468888C0F308007047818941F00101FB
:101FE00081817047028BD2B20283028B42EA0122C6
:101FF00002837047028B02F47F420283028B0A4302
:102000000283704721B1828A42F02002828204E07A
:10201000828A4FF6DF731A408282704721B1828A2A
:1020200042F01002828204E0828A4FF6EF731A4077
:102030008282704721B1828A42F00802828204E0E3
:10204000828A4FF6F7731A408282704721B18289E3
:1020500042F40042828103E08289C2F30E0282814F
:10206000704721B1828A42F40062828204E0828A4F
:102070004FF2FF731A4082827047828A4FF6FB73D9
:102080001A408282828A0A438282704721B1828A00
:1020900042F00202828204E0828A4FF6FD731A4007
:1020A0008282704702460020B1F5007F00D100BF58
:1020B00013880B400BB1012000E00020704701F4B1
:1020C0000072B2F5007F00D100BFCA4302807047A2
:1020D00070B50246002400230025002040F66A1651
:1020E000B14200D100BFC1F3421501F01F03012628
:1020F00006FA03F3012D02D19689334006E0022D42
:1021000002D1168A334001E0968A33400C12012630
:1021100006FA04F41688344013B10CB1012000E033
:10212000002070BD10B50022002340F66A14A142C1
:1021300000D100BF0A1201249440A3B2DC43048002
:1021400010BD00000038014000440040004800403D
:10215000004C00400050004001B502E00098401ED5
:10216000009000980028F9D108BD00244FF4A06029
:10217000FEF7CAF800F0E1F815A000F0BFFE20A0BD
:1021800000F0BCFE27A000F0B9FE2AA000F0B6FEC9
:1021900030A000F0B3FE38A000F0B0FE00F026FE44
:1021A00000F0D0FC00F0B0FB00F004FA3EA000F01C
:1021B000A5FE0BE000F0CEFB204600F021FE6428D7
:1021C00004D300F01AFE044600F002FAF2E7000021
:1021D0000D0A3D3D3D3D3D3D3D3D3D3D3D3D3D3D92
:1021E0003D3D3D3D3D3D3D3D3D3D3D3D3D3D3D3D1F
:1021F0003D3D3D3D3D3D3D3D3D3D0D0A0000000066
:1022000020204D6F646275732052545520B4D3D58D
:10221000BE202D20B9E2C3F4B5E7D7E8B2C9BCAF00
:102220000D0A00002020B4D3D5BEB5D8D6B73A20C9
:10223000310D0A002020B1A3B3D6BCC4B4E6C6F762
:102240003A2034303030312028B5D8D6B730290D77
:102250000A0000002020CDA8D0C5B2CECAFD3A2089
:1022600052532D343835203936303062707320386F
:1022700045310D0A000000003D3D3D3D3D3D3D3DE9
:102280003D3D3D3D3D3D3D3D3D3D3D3D3D3D3D3D7E
:102290003D3D3D3D3D3D3D3D3D3D3D3D3D3D3D3D6E
:1022A0000D0A0D0A00000000CFB5CDB3B3F5CABCCE
:1022B000BBAFCDEAB3C9A3ACB5C8B4FDD6F7D5BEA4
:1022C000C2D6D1AF2E2E2E0D0A0D0A00704700BFC8
:1022D000FEE700BFFEE700BFFEE700BFFEE7704776
:1022E00070477047704710B54FF408710748FEF704
:1022F00089FA012804D10548FEF79AF904490880B3
:102300004FF408710148FEF78FFA10BD0024014018
:102310002800002008B54FF4A060FDF7F5FF252048
:102320008DF8000001208DF801008DF802008DF875
:1023300003006846FDF7EDFF08BD00B585B001213B
:102340000420FEF793FD01218803FEF78FFD4FF473
:102350000070ADF8100018208DF8130003208DF8E0
:10236000120004A95248FEF7C5FA4FF48060ADF898
:10237000100004208DF8130004A94D48FEF7BAFAA6
:102380004FF4E13000900020ADF80400ADF80600F5
:10239000ADF80800ADF80C000C20ADF80A00694655
:1023A0004448FFF718FDFFF7B5FF012240F2255121
:1023B0004048FFF7A8FD01213E48FFF798FD05B012
:1023C00000BD70B504460D4629462046FFF7FCFDCA
:1023D00000BF80212046FFF765FE0028F9D070BDC0
:1023E0002DE9F04107460D461646002405E0295D1B
:1023F0003846FFF7E6FF601CC4B2B442F7DB00BF0B
:1024000040213846FFF74EFE0028F9D0BDE8F081A4
:1024100070B506460C46002500BF615D3046FFF7EB
:10242000D0FF6D1C605D0028F7D100BF4021304611
:10243000FFF738FE0028F9D070BD2DE9F0410546C0
:102440000C46260AE7B231462846FFF7BDFD00BF1D
:1024500080212846FFF726FE0028F9D03946284675
:10246000FFF7B2FD00BF80212846FFF71BFE0028C2
:10247000F9D0BDE8F08170B504460D46E1B20D48D3
:10248000FFF7A2FD00BF80210A48FFF70BFE0028DE
:10249000F9D0204670BD10B5044600BF2021054884
:1024A000FFF700FE0028F9D00248FFF791FD10BDAC
:1024B000000801400038014008B501210420FEF762
:1024C000D5FC01210420FEF7D1FC1020ADF800005E
:1024D00000208DF8030069463448FEF70BFA2020EF
:1024E000ADF8000004208DF8030069462F48FEF780
:1024F00001FA08BD00B585B001214802FEF7B6FC1F
:10250000002000908DF8040001208DF805004FF4A4
:10251000602002900020039001208DF81000694691
:102520002348FDF786FF4FF44040FEF703FC0523E8
:10253000012204211E48FEF714F801224FF408710D
:102540001B48FDF7B8FF01211948FDF79EFF184809
:10255000FDF7BDFF00BF1648FDF7BEFF0028FAD10A
:102560001348FDF7C3FF00BF1148FDF7C4FF002863
:10257000FAD101210E48FDF7C8FF05B000BD08B52E
:1025800012208DF8000001208DF801008DF8020066
:102590008DF803006846FDF7BCFE08BD10B5FFF7D7
:1025A0008BFFFFF7A7FFFFF7EAFF10BD0008014010
:1025B0000024014010B5FFF7F1FF002005E00021E5
:1025C000254A22F81010411C88B20028F7D010BD0F
:1025D0002248008820490880704730B5034612B968
:1025E0004FF0FF3030BD13B14FF0FF30FAE758180D
:1025F000012802D94FF0FF30F4E7002007E01C1853
:10260000154D35F8144022F81040441CA0B2884201
:10261000F5DB0020E6E7024612B94FF0FF307047C5
:1026200012B14FF0FF30FAE74FF0FF30F7E70A48FA
:102630000088704770B504460D4616463246294656
:102640002046FFF7CAFF70BD10B503460C46214671
:102650001846FFF7E0FF10BD2A00002028000020E8
:1026600070B506460C46A01CB0F5807F00D970BD41
:10267000002004E0315C984A1154411C88B2A04209
:10268000F8DB2146304600F09FF90546280A9249BA
:1026900008550A46601C1554002240F225518F4807
:1026A000FFF731FCA01C81B28B4800F069FA0122CF
:1026B00040F225518948FFF726FC00BFD7E7F8B55F
:1026C00004460D46164604B9F8BD8DF8004045F0A5
:1026D00080008DF801008DF8026003216846FFF745
:1026E000BFFF00BFF0E72DE9F04FC1B004468946B7
:1026F00014B1B9F1020F02DA41B0BDE8F08F2678CB
:102700006778012E01D006B1F6E7032F02D0062F1D
:102710007DD18AE0B9F1060F05D003223946304653
:10272000FFF7CDFFCEE0A01C00F0CFF84090201DB9
:1027300000F0CBF88046B8F1000F02D0B8F17D0F61
:1027400005DD032239463046FFF7B9FFBAE001AA9A
:1027500041464098FFF76EFF0090009828B1022292
:1027600039463046FFF7ABFFACE006B9AAE00025DA
:1027700029466D1C5848465429466D1C47544FEA5B
:102780004860020E29466D1C5348425400210846F9
:102790000DE0514B591901AB33F8102013120B7097
:1027A0004A7000BFA91C8DB2411C89B20846404541
:1027B000EFDB2946484800F007F982464FEA1A2223
:1027C0002846691C8DB244490A542846691C8DB2BA
:1027D000414901F800A0002240F225513F48FFF78F
:1027E00092FB29463EA000F089FB4FF0000B09E068
:1027F000394810F80B103EA000F080FB0BF10100EF
:102800001FFA80FBAB45F3DB51463BA000E053E0F1
:1028100000F074FB2946304800F0B2F9012240F282
:1028200025512E48FFF76FFB4CE0B9F1060F05D09C
:10283000032239463046FFF742FF43E0A01C00F078
:1028400044F88246201D00F040F883465946504621
:10285000FFF7FAFE8046B8F1000F05D00222394694
:102860003046FFF72CFF2DE006B92BE01A48067022
:102870004770A07818498870E078C870207908718E
:10288000607948710621144800F09EF80546280A30
:1028900011498871CD71002240F225510F48FFF790
:1028A00032FB08210C4800F06BF9012240F225515F
:1028B0000A48FFF728FB05E0012239463046FFF7BA
:1028C000FEFE00BF00BF00BF16E7014648780A7849
:1028D00040EA0220704700005000002000480040FD
:1028E0005B54585D2025642062797465733A20003A
:1028F0002530325820000000284352433D25303413
:1029000058290D0A0000000010B500F04AF82848C8
:102910002849086010BD27490860704710B5044673
:102920002548007828B90020244908800120224940
:10293000087022480088FF2807D8204801880088AE
:10294000401C1E4A10801E48445400F056FA1D498F
:10295000086010BD70B518480078012820D11948CA
:10296000006800F04DFA0446052C18D3134800887F
:10297000042812D311480188114800F025F80546B3
:1029800055B90C48006838B10C480088801E81B2E7
:102990000B48084A1268904700BF00F002F800BFD9
:1029A00070BD002005490880034908707047000089
:1029B000E7260008340000202C0000202E00002014
:1029C000500100203000002070B502460B46FF2465
:1029D000FF2500210AE0565C86EA0400064E365CBC
:1029E00086EA0504054E355C481C81B29942F2DB4B
:1029F00045EA042070BD00009233000892340008BC
:102A0000D44A1268D44BB2FBF3F202FB00F100E0AF
:102A100000BF0A1EA1F10101FAD1704708B50121DA
:102A20000920FEF723FA4FF48060ADF80000032080
:102A30008DF8020018208DF803006946C748FDF79D
:102A400059FF4FF40060ADF8000004208DF803003A
:102A50006946C248FDF74EFF0120ADF80000102086
:102A60008DF803006946BD48FDF744FF0121BB48CE
:102A7000FDF7EFFF0220ADF8000010208DF80300F5
:102A80006946B648FDF736FF0221B448FDF7E1FF7D
:102A900008BD00B585B001218804FEF7F4F901A84E
:102AA000FFF702FA4FF4165001904FF48050ADF842
:102AB00008000020ADF80A004FF48060ADF80C006B
:102AC0000020ADF810000C20ADF80E0001A9A448BC
:102AD000FFF781F9012240F22551A148FFF713FACF
:102AE000002240F227719E48FFF70DFA27208DF84B
:102AF000000002208DF8010000208DF80200012066
:102B00008DF803006846FDF704FC01219448FFF7A7
:102B1000EEF905B000BD10B500BF9148008800F087
:102B200040000028F9D04FF4FA70FFF769FF00BFAA
:102B300001218A48FDF78DFF02218848FDF789FFB2
:102B400000BF10BD10B50020864908708649087086
:102B50008649086086490880864908808649088039
:102B6000FFF75CFFFFF795FF10BD10B500F0E4F82C
:102B700010BD10B5FFF7CFFF10BD7A480078704741
:102B800070B504460D4600BF764800780028FBD19A
:102B9000764804607648058001207249087000F08C
:102BA000CBF87248006800786D49091D08806F48AD
:102BB0000068401C6D4908606D480088401E6C49E3
:102BC0000880012240F227716548FFF79CF900BF99
:102BD000644800780028FBD170BD014609B9002087
:102BE000704765480088634A1288904201D10020EE
:102BF000F6E762485F4A1288805C08705D4800888A
:102C0000401CC0B25B4A10800120E9E72DE9F04189
:102C100040F225515248FFF75BFA50B35048FFF796
:102C2000D7F90646F7B23C4653480088401CC5B267
:102C300050480088854206D050484F49098844547E
:102C40004D4805800BE04B480088401CC0B2494904
:102C500008804A4848490988445447480580204626
:102C6000FFF75CFE00BF40F225513D48FFF75AFADE
:102C700000BF40F227713A48FFF72AFA40B33C48B8
:102C80000088002810DD3948006800783449091DA3
:102C9000088036480068401C344908603448008881
:102CA000401E334908800EE0002240F227712C4874
:102CB000FFF729F9012240F226612948FFF723F99D
:102CC00001202949087040F227712548FFF72AFAA8
:102CD00040F226612248FFF7FBF958B340F2266123
:102CE0001F48FFF71FFA2048007818B300201E493C
:102CF0000870184800681849B0FBF1F04FF47A7179
:102D000000FB01F400E000BF201EA4F10104FAD191
:102D100001211248FDF79DFE02211048FDF799FEA2
:102D2000002240F226610E48FFF7EDF800200D4921
:102D3000087000BFBDE8F08110B53220FFF760FEDB
:102D400001210648FDF783FE02210448FDF77FFEBE
:102D500010BD000000000020C0C62D00000C014086
:102D60000048004038000020390000203C000020CE
:102D700040000020440000204200002050020020BB
:102D80001FB501210420FEF77EF801A8FEF7D2FC52
:102D900041F61F40ADF804000020ADF80600092000
:102DA000ADF808000020ADF80A0001A91F48FEF7A1
:102DB00095F901211D48FEF7C7FF012211461B4866
:102DC000FEF703FD1E208DF8000003208DF80100A2
:102DD00000208DF8020001208DF803006846FDF701
:102DE00098FA01211148FEF7D5FC1FBD10B500204F
:102DF0000F490860FFF7C4FF10BD0D480068704719
:102E000001460B480068401A704710B50121074879
:102E1000FEF789FF40B101210448FEF795FF044801
:102E20000068401C0249086010BD00000008004016
:102E3000480000202DE9F05F0546002092469B46A1
:102E400088460646814640241BE0284641464746C0
:102E5000224600F042F853465A46C01A914110D318
:102E600011461846224600F029F82D1A67EB010892
:102E70004F4622460120002100F020F817EB000900
:102E80004E41201EA4F10104DFDC484631462A46AB
:102E90004346BDE8F09F0000064C074D06E0E068A1
:102EA00040F0010394E8070098471034AC42F6D391
:102EB000FDF720F994350008B4350008202A04DB1A
:102EC000203A00FA02F1002070479140C2F120033D
:102ED00020FA03F3194390407047202A04DB203A7C
:102EE00021FA02F00021704721FA02F3D040C2F12A
:102EF0002002914008431946704700000FB4054B6B
:102F000010B503A9044A029800F018F810BC5DF847
:102F100014FB0000772400084C00002002E008C8E1
:102F2000121F08C1002AFAD170477047002001E043
:102F300001C1121F002AFBD1704700002DE9FF4F8D
:102F40008DB00F460546002606E025280BD0DDE9AA
:102F50000F1290476D1C761C28780028F5D111B00F
:102F60003046BDE8F08F0024A246A1460122E9497F
:102F700000E0044315F8013F203B02FA03F0084249
:102F8000F7D128782A2810D06FF02F022878A0F1E6
:102F90003001092914D80AEB8A0102EB410144F0FF
:102FA000020400EB010A6D1CF0E701CF5FEA000AA2
:102FB00003D544F40054CAF1000A44F002046D1C25
:102FC00028782E2817D115F8010F44F004042A2878
:102FD0000ED06FF02F022878A0F1300109290AD80D
:102FE00009EB890102EB410100EB01096D1CF2E7DD
:102FF00057F8049B6D1C28786C280FD006DC4C28F1
:1030000017D068280DD06A2814D104E0742810D095
:103010007A280FD10DE044F400140AE044F480143F
:1030200001E044F440146978814202D104F580142F
:103030006D1C6D1C28786E281ED00CDC632830D0E7
:1030400004DC00288BD0582811D19FE0642867D079
:1030500069280CD164E073282DD004DC6F2872D06D
:10306000702804D194E075286ED078286DD0DDE901
:103070000F129047761C4BE1C4F30250022806D091
:10308000032809D0042801CF09D0066040E101CF10
:10309000F117C0E900613BE101CF068038E106701D
:1030A00036E117F8040B8DF8000000208DF80100C0
:1030B000EB46012003E057F804BB4FF0FF306107F7
:1030C0004FF0000102D40DE008F1010188464945A6
:1030D0000FDA8045F8DB1BF808100029F4D108E06E
:1030E00008F1010188468142FADB1BF8081000292B
:1030F000F6D1DDE90F23AAEB08008146214600F056
:1031000031F9304400EB080604E0DDE90F121BF84A
:10311000010B9047B8F10108F7D221464846F2E08A
:103120000A21C4F302524FF0000B0891022A04D086
:1031300001CFC117032A09D00AE0FF1D27F00707B6
:10314000F7E8020108E02CE01EE01FE000B2C11722
:10315000042A01D140B2C117021E71F1000206DA41
:103160000023D0EB030063EB01012D2202E02205D6
:1031700004D52B228DF82420012203E0E20701D0A0
:103180002022F7E7904653E00A210BE0102109E0E6
:1031900010214FF0000B44F004044FF0080908918F
:1031A00003E008214FF0000B0891C4F30252022AF9
:1031B00004D001CF0021032A06D006E0FF1D27F02E
:1031C0000707F7E8020103E080B2042A00D1C0B289
:1031D0004FF0000822072BD52A78702A07D0DDF897
:1031E00020C08CF0100C5CEA0B0C05D00EE04022E5
:1031F0008DF82420012208E050EA010306D0302394
:103200008DF824308DF8252002229046089B83F00B
:10321000080353EA0B030BD150EA010201D1620704
:1032200006D530228DF824204FF00108A9F10109BC
:103230002A78582A04D038A20B9208AA0A920BE0E6
:103240003AA2F9E75B46089AFFF7F4FD0B9B9B5CFB
:103250000A9A521E0A92137050EA0102F2D10A9899
:10326000ADEB000000F1200B600702D524F48034A0
:1032700001E04FF00109D94502DDA9EB0B0000E0A8
:10328000002000EB0B0141440890AAEB010AE00387
:1032900006D4DDE90F232146504600F063F80644CA
:1032A0004FF0000908E009A911F80900DDE90F1243
:1032B000904709F10109761CC145F4DBE0030CD508
:1032C000DDE90F232146504600F04CF8064404E0A7
:1032D000DDE90F1230209047761C0899481E0890AF
:1032E0000029F5DC08E00A980A990078491C0A913F
:1032F000DDE90F129047761CBBF10001ABF1010B29
:10330000F1DC21465046DDE90F2300F019F80644B0
:103310006D1C21E60928010030313233343536374F
:103320003839616263646566000000003031323311
:1033300034353637383941424344454600000000B1
:103340002DE9F041044600251E461746880404D4A2
:1033500005E039462020B0476D1C641EF9D528468B
:10336000BDE8F0812DE9F041044600251E46904657
:10337000C80301D5302700E02027880404D505E0E4
:1033800041463846B0476D1C641EF9D52846BDE855
:10339000F08100C1814001C0804101C0804100C175
:1033A000814001C0804100C1814000C1814001C015
:1033B000804101C0804100C1814000C1814001C005
:1033C000804100C1814001C0804101C0804100C1F5
:1033D000814001C0804100C1814000C1814001C0E5
:1033E000804100C1814001C0804101C0804100C1D5
:1033F000814000C1814001C0804101C0804100C1C5
:10340000814001C0804100C1814000C1814001C0B4
:10341000804101C0804100C1814000C1814001C0A4
:10342000804100C1814001C0804101C0804100C194
:10343000814000C1814001C0804101C0804100C184
:10344000814001C0804100C1814000C1814001C074
:10345000804100C1814001C0804101C0804100C164
:10346000814001C0804100C1814000C1814001C054
:10347000804101C0804100C1814000C1814001C044
:10348000804100C1814001C0804101C0804100C134
:10349000814000C0C101C30302C2C60607C705C5FB
:1034A000C404CC0C0DCD0FCFCE0E0ACACB0BC9096C
:1034B00008C8D81819D91BDBDA1A1EDEDF1FDD1D7C
:1034C0001CDC14D4D515D71716D6D21213D311D1AC
:1034D000D010F03031F133F3F23236F6F737F535FC
:1034E00034F43CFCFD3DFF3F3EFEFA3A3BFB39F92C
:1034F000F83828E8E929EB2B2AEAEE2E2FEF2DEDFC
:10350000EC2CE42425E527E7E62622E2E323E1216B
:1035100020E0A06061A163A3A26266A6A767A5657B
:1035200064A46CACAD6DAF6F6EAEAA6A6BAB69A9EB
:10353000A86878B8B979BB7B7ABABE7E7FBF7DBDFB
:10354000BC7CB47475B577B7B67672B2B373B1712B
:1035500070B05090915193535292965657975595FB
:1035600094549C5C5D9D5F9F9E5E5A9A9B5B9959AB
:103570005898884849894B8B8A4A4E8E8F4F8D4D7B
:103580004C8C4484854587474686824243834181EB
:1035900080400000B435000800000020500000000A
:1035A0001C2F00080436000850000020000900000D
:1035B0002C2F000800A24A040000000000000000B8
:1035C00001020304060708090000000001020304C9
:1035D00001020304060708090204060800000000AF
:1035E00000000000000000000000000000000000DB
:1035F00000000000000000000000000000000000CB
:0436000000000000C6
:04000005080000ED02
:00000001FF
