:020000040800F2
:10000000800700200501000889090008B7060008DC
:1000100039070008610300084713000800000000CA
:10002000000000000000000000000000F90B0008C4
:100030008505000800000000110A0008E50C000812
:100040001F0100081F0100081F0100081F01000810
:100050001F0100081F0100081F0100081F01000800
:100060001F0100081F0100081F0100081F010008F0
:100070001F0100081F0100081F0100081F010008E0
:100080001F0100081F0100081F0100081F010008D0
:100090001F0100081F0100081F0100081F010008C0
:1000A0001F0100081F0100081F0100081F010008B0
:1000B0001F0100081F0100081D0E00081F01000895
:1000C0001F0100081F0100081F0100081F01000890
:1000D0001F0100081F0100081F0100087D0F000814
:1000E0001F0100081F0100081F010008DFF810D0E1
:1000F00000F04CF80048004745180008AFF30080B6
:10010000800700200648804706480047FEE7FEE7D4
:10011000FEE7FEE7FEE7FEE7FEE7FEE7FEE7FEE7B7
:10012000950D0008ED0000082DE9F05F0546002060
:1001300092469B4688460646814640241BE0284658
:1001400041464746224600F042F853465A46C01AF6
:10015000914110D311461846224600F029F82D1A75
:1001600067EB01084F4622460120002100F020F8ED
:1001700017EB00094E41201EA4F10104DFDC4846C4
:1001800031462A464346BDE8F09F0000064C074D25
:1001900006E0E06840F0010394E807009847103457
:1001A000AC42F6D3FFF7A6FFE01F000800200008CE
:1001B000202A04DB203A00FA02F100207047914027
:1001C000C2F1200320FA03F3194390407047202A1C
:1001D00004DB203A21FA02F00021704721FA02F3F1
:1001E000D040C2F1200291400843194670470000F8
:1001F00010B500F011F9002005E00021084A22F8AE
:100200001010411C88B20C28F7D300200549087053
:1002100048708870C870087103480449086010BDB0
:10022000640000203400002048F4FFFF3C00002060
:1002300030B5034612B94FF0FF3030BD0C2B02D35E
:100240004FF0FF30F9E758180C2802D94FF0FF3073
:10025000F3E7002007E01C18054D35F8144022F89C
:100260001040441CA0B28842F5DB0020E5E7000006
:100270006400002070B500F0BDFD05461048006820
:10028000281AB0F5FA6F00D270BD0E4800F024F9BC
:100290000446012C0FD10B4880780B49888209480D
:1002A0000078C8820648056006480278817807A071
:1002B00001F04CF802E012A001F048F800BFE3E7BB
:1002C0003C00002034000020640000205B444854BF
:1002D0003131205550444154455D205355434345E9
:1002E00053533A2054656D703D2564E284832C207D
:1002F00048756D693D2564252552480D0A000000AA
:100300005B4448543131205550444154455D2046AA
:1003100041494C45443A2052656164206572726FD0
:10032000722C206B656570696E67207072657669E6
:100330006F75732076616C7565730D0A000000009F
:1003400002460A2A01D00B2A02D14FF0FF30704733
:100350000C2A02D34FF0FF30F9E74FF0FF30F6E7F9
:1003600000BFFEE70748006840F08070054908605C
:100370000020054948600846006840F00100086018
:1003800070470000FCED00E0001000E0014840680C
:1003900070470000001000E031B50024FFF7E2FFD5
:1003A000104800681049B0FBF1F0009900FB01F51E
:1003B00000BFFFF7EBFF034611E0FFF7E7FF024640
:1003C0009A420CD09A4202D9D01A044403E0C3F1F5
:1003D000FF30104404441346AC4200D300E0ECE785
:1003E00000BF38BD0000002040420F0008B50121C9
:1003F000082000F01FFB4FF48040ADF800001020F3
:100400008DF8030003208DF802006946014800F0D2
:10041000BAF808BD000C014010B5FFF7E7FF4FF434
:100420008041024800F045F910BD0000000C014079
:1004300008B54FF48040ADF8000048208DF8030067
:100440006946024800F09FF808BD0000000C01401A
:1004500008B54FF48040ADF8000010208DF803007F
:1004600003208DF802006946014800F08CF808BDB1
:10047000000C014070B50025002427E000BF4FF4B8
:100480008041144800F00AF90028F8D02820FFF72E
:1004900083FF4FF480410F4800F000F901280ED18E
:1004A00000BF4FF480410B4800F0F8F80128F8D065
:1004B000C4F1070101208840C0B2054304E0C4F143
:1004C0000701012088408543601CC4B2082CD5DB9D
:1004D000284670BD000C014010B50446FFF7B8FF78
:1004E0004FF48041264800F0E2F844F25060FFF7F4
:1004F00053FF4FF48041224800F0DBF81E20FFF745
:100500004BFFFFF795FF4FF480411D4800F0C6F800
:1005100088BB00BF4FF48041194800F0BFF80028A5
:10052000F8D000BF4FF48041154800F0B7F801281B
:10053000F8D0FFF79FFF2070FFF79CFF6070FFF778
:1005400099FFA070FFF796FFE070FFF793FF20710F
:10055000FFF77EFF4FF48041094800F0AAF82078A9
:1005600061780844A1780844E178084421798842F8
:1005700002D1012010BD01E00020FBE70020F9E7D7
:10058000000C014070472DE9F0410246002500268D
:10059000002000230024002791F803C00CF00F0571
:1005A00091F803C00CF0100CBCF1000F03D091F8CF
:1005B00002C04CEA050591F800C0BCF1000F31D033
:1005C000146800202BE04FF0010C0CFA00F3B1F896
:1005D00000C00CEA03069E4220D183004FF00F0CAE
:1005E0000CFA03F7BC4305FA03FC4CEA040491F847
:1005F00003C0BCF1280F06D14FF0010C0CFA00FC2F
:10060000C2F814C00AE091F803C0BCF1480F05D14C
:100610004FF0010C0CFA00FCC2F810C0401C082876
:10062000D1D31460B1F800C0BCF1FF0F34DD5468C1
:1006300000202EE000F1080C4FF0010808FA0CF33E
:10064000B1F800C00CEA03069E4221D183004FF0AE
:100650000F0C0CFA03F7BC4305FA03FC4CEA040444
:1006600091F803C0BCF1280F05D100F1080C08FA7D
:100670000CF8C2F8148091F803C0BCF1480F07D100
:1006800000F1080C4FF0010808FA0CF8C2F81080CD
:10069000401C0828CED35460BDE8F08102460020FB
:1006A00093680B400BB1012000E0002070474161CE
:1006B00070470161704700BFFEE7000010B501F010
:1006C000BBFA02480249086010BD00003D0700085F
:1006D0004800002070B513480078012820D1124846
:1006E000006800F08DFB0446052C18D30F480088E5
:1006F000042812D30D4801880D4800F029F9054659
:1007000055B90C48006838B108480088801E81B28D
:100710000748084A1268904700BF01F08DFA00BFF1
:1007200070BD000040000020440000204200002076
:100730007C0000204800002000BFFEE72DE9F04FBC
:10074000C1B00446894614B1B9F1020F02DA41B0D2
:10075000BDE8F08F26786778022E01D006B1F6E763
:10076000032F02D0062F6ED189E0B9F1060F05D014
:1007700003223946304601F09DFACDE0A01C01F07D
:1007800029FB4090201D01F025FB8046B8F1000FA9
:1007900002D0B8F17D0F05DD03223946304601F065
:1007A00089FAB9E001AA4146409801F027F8009083
:1007B000009828B102223946304601F07BFAABE0BE
:1007C00006B9A9E0002529466D1C5548465429461E
:1007D0006D1C47544FEA4860020E29466D1C504874
:1007E0004254002108460DE04D4B591901AB33F836
:1007F000102013120B704A7000BFA91C8DB2411C4F
:1008000089B208464045EFDB2946454800F0A0F88C
:1008100082464FEA1A222846691C8DB240490A5482
:100820002846691C8DB23E4901F800A0002240F222
:1008300025513C4800F0E1FC29463BA000F086FD34
:100840004FF0000B0AE061E0354810F80B103AA0B9
:1008500000F07CFD0BF101001FFA80FBAB45F3DBE0
:10086000514637A000F072FD29462D4800F08EF960
:10087000012240F225512B4800F0BFFC4CE0B9F1B9
:10088000060F05D003223946304601F013FA43E043
:10089000A01C01F09FFA8246201D01F09BFA8346BE
:1008A0005946504600F0B4FF8046B8F1000F05D01D
:1008B00002223946304601F0FDF92DE006B92BE061
:1008C000174806704770A07815498870E078C8709E
:1008D00020790871607948710621114800F038F8D4
:1008E0000546280A0E498871CD71002240F2255133
:1008F0000C4800F082FC0821094800F047F9012269
:1009000040F22551074800F078FC05E00122394605
:10091000304601F0CFF900BF00BF00BF17E700006D
:100920007C010020004800405B54585D2025642075
:1009300062797465733A2000253032582000000037
:10094000284352433D25303458290D0A0000000049
:1009500070B502460B46FF24FF2500210AE0565CD5
:1009600086EA0400064E365C86EA0504054E355CD0
:10097000481C81B29942F2DB45EA042070BD0000B8
:10098000E01D0008E01E00087047000070B500215F
:1009900000230F22C47804B3154C246804F4E064E7
:1009A000C4F5E064210AC1F10403CA40447804FAA2
:1009B00003F184781440214309010E4C0678A155B7
:1009C000047804F01F050124AC4005786D11AD00DA
:1009D00005F1E025C5F8004109E0047804F01F05A1
:1009E0000124AC40044D0678761145F8264070BDD0
:1009F0000CED00E000E400E080E100E0024901438A
:100A0000024A1160704700000000FA050CED00E09A
:100A10007047000029B1064AD2690243044BDA61EB
:100A200004E0034AD2698243014BDA617047000057
:100A30000010024029B1064A92690243044B9A61B0
:100A400004E0034A92698243014B9A6170470000B7
:100A50000010024030B500210022002400232D4D5B
:100A60006D6805F00C0121B1042905D0082923D1B6
:100A700005E0294D056022E0274D05601FE0254D6A
:100A80006D6805F47012234D6D6805F480340225FD
:100A900005EB92421CB9214D554305600BE01D4DFD
:100AA0006D6805F400351DB11C4D5543056002E02D
:100AB000194D5543056002E0174D056000BF00BFAA
:100AC000144D6D6805F0F0010909154D6B5C056862
:100AD000DD4045600F4D6D6805F4E061090A104D79
:100AE0006B5C4568DD4085600A4D6D6805F46051BA
:100AF000C90A0B4D6B5C4568DD40C560054D6D68EE
:100B000005F44041890B074D6B5CC568B5FBF3F5F7
:100B1000056130BD0010024000127A0000093D005E
:100B20001400002024000020064A1268064BB2FB85
:100B3000F3F202FB00F100E000BF0A1EA1F1010187
:100B4000FAD1704700000020C0C62D0010B500206B
:100B50000849087008490870084908600849088071
:100B6000084908800849088001F028F801F0EEF8EB
:100B700010BD000050000020510000205400002053
:100B8000580000205C0000205A00002070B5044688
:100B90000D4600BF144800780028FBD113480460BC
:100BA0001348058001201049087000F0F7FF0F4836
:100BB000006800780F4908800C480068401C0B4909
:100BC00008600B480088401E09490880012240F255
:100BD00027710848001F00F010FB00BF0248007892
:100BE0000028FBD170BD0000500000205400002000
:100BF0005800002004480040704710B500F002F88B
:100C000010BD00000CB50020019000903348006832
:100C100040F480303149086000BF3048006800F47B
:100C2000003000900198401C0190009818B901987C
:100C3000B0F5A06FF1D12948006800F4003010B180
:100C40000120009001E0002000900098012843D18D
:100C50002348006840F010002149086008460068F9
:100C600020F0030008600846006840F002000860B9
:100C70001A48406819494860084640684860084674
:100C8000406840F4806048600846406820F47C106A
:100C900048600846406840F4E8104860084600682C
:100CA00040F08070086000BF0C48006800F00070E1
:100CB0000028F9D00948406820F00300074948603F
:100CC0000846406840F00200486000BF03484068A2
:100CD00000F00C000828F9D10CBD00000010024003
:100CE0000020024000B500F03DF909480068401CB2
:100CF0000749086008460068B0F57A7F06D30020EF
:100D0000086004480068401C0249086000BD0000FB
:100D1000300000202C00002030B51A4800681A4A24
:100D2000B0FBF2F1B1F1807F01D301201DE021F091
:100D30007F40401E4FF0E022506150170F220028E4
:100D400007DA13071D0E114B00F00F04241F1D5569
:100D500003E013071C0E0E4B1C5400BF00204FF085
:100D6000E022906107201061002008B100BFFEE77B
:100D70004FF0E020006920F001004FF0E021086111
:100D800030BD00000000002040420F0018ED00E0E0
:100D900000E400E010B51348006840F0010011497C
:100DA000086008464068104908400E4948600846F7
:100DB00000680E4908400B4908600846006820F4A6
:100DC000802008600846406820F4FE0048604FF428
:100DD0001F008860FFF711FF4FF0006004490860B2
:100DE00010BD0000001002400000FFF8FFFFF6FEFB
:100DF00008ED00E001480068704700002C0000206A
:100E0000014602480068401A704700004C0000206C
:100E100001480068704700004C00002010B5012117
:100E2000064800F028F840B10121044800F014F809
:100E300003480068401C0249086010BD00080040DB
:100E40004C00002010B500200249086000F046FF69
:100E500010BD00004C000020CA430282704721B13F
:100E6000028842F00102028004E002884FF6FE731D
:100E70001A400280704730B502460020002300244B
:100E8000158A05EA0103958905EA010413B10CB13D
:100E9000012000E0002030BD1AB183890B4383811B
:100EA00002E083898B43838170470000002202881F
:100EB0001D4B98420ED01D4B98420BD0B0F1804F85
:100EC00008D01B4B984205D01A4B984202D01A4BBF
:100ED000984204D14FF68F731A404B881A43174B30
:100EE000984207D0164B984204D04FF6FF431A4061
:100EF000CB881A4302808B8883850B8803850A4B35
:100F000098420BD0094B984208D00E4B984205D01E
:100F10000D4B984202D00D4B984201D10B7A0386BB
:100F20000123838270470000002C014000340140FF
:100F30000004004000080040000C00400010004089
:100F400000140040004001400044014000480140BE
:100F50004FF6FF71818000210180C18041800172C4
:100F6000704700000448006820B103480068401E34
:100F70000149086070470000280000202DE9F04179
:100F800040F22551484800F00EF950B3464800F0B1
:100F9000C5F90646F7B23C4644480088401CC5B235
:100FA00043480088854206D0424840490988445455
:100FB0003E4805800BE03E480088401CC0B23C49DA
:100FC00008803C48394909884454384805802046FF
:100FD00000F0C0FD00BF40F22551334800F07AF820
:100FE00000BF40F22771304800F0DDF840B33248CE
:100FF0000088002810DD3148006800782A49091D62
:1010000008802E480068401C2C4908602A48008847
:10101000401E294908800EE0002240F22771224834
:1010200000F0EBF8012240F226611F4800F0E5F8DD
:1010300001202349087040F227711B4800F04AF84C
:1010400040F22661184800F0AEF858B340F226612D
:10105000154800F03FF81A48007818B300201849E6
:101060000870184800681849B0FBF1F04FF47A7125
:1010700000FB01F400E000BF201EA4F10104FAD13E
:1010800001211248FFF713FB02211048FFF70FFB65
:10109000002240F22661044800F0AFF800200C491D
:1010A000087000BFBDE8F081004800405A000020F1
:1010B0005C0000207C02002058000020540000202A
:1010C0005100002000000020C0C62D00000C01408F
:1010D0005000002010B50022002340F66A14A142FF
:1010E00000D100BF0A1201249440A3B2DC43048063
:1010F00010BD21B1828942F40052828104E08289CC
:101100004DF6FF731A4082817047000000B585B02C
:1011100001210420FFF78EFC01218803FFF78AFCE0
:101120004FF40070ADF8100018208DF81300032064
:101130008DF8120004A91348FFF725FA4FF48060D8
:10114000ADF8100004208DF8130004A90D48FFF736
:101150001AFA4FF4E13000900020ADF80400ADF829
:101160000600ADF80800ADF80C000C20ADF80A0040
:101170006946054800F066F801210348FFF7B9FF0A
:1011800005B000BD000801400038014002460020C3
:10119000B1F5007F00D100BF13880B400BB10120D7
:1011A00000E00020704770B50246002400230025AF
:1011B000002040F66A16B14200D100BFC1F34215CB
:1011C00001F01F03012606FA03F3012D02D19689CF
:1011D000334006E0022D02D1168A334001E0968AA0
:1011E00033400C12012606FA04F41688344013B179
:1011F0000CB1012000E0002070BDF0B503460024D2
:1012000000260025002040F66A17B94200D100BF31
:101210001846C1F3421401F01F06012707FA06F52C
:10122000012C01D10C3004E0022C01D1103000E07F
:1012300014301AB107682F43076002E00768AF4314
:101240000760F0BD2DE9F04786B005460E46002444
:10125000A24600BFA1460027B08900B100BF2F46BB
:101260002C8A4CF6FF700440F08804432C82AC8931
:101270004EF6F3100440B088318908437189084361
:101280000443AC81AC8A4FF6FF400440B08904436C
:10129000AC8201A8FFF7DEFB1F48874202D1DDF8D0
:1012A00010A001E0DDF80CA0A88900F4004040B1D6
:1012B0000AEBCA0000EB0A1031684900B0FBF1F8F4
:1012C00007E00AEBCA0000EB0A1031688900B0FBA6
:1012D000F1F86420B8FBF0F004012009642101FB5F
:1012E0001089A88900F4004040B1322000EBC90009
:1012F000B0FBF1F000F00700044308E0322000EBFF
:1013000009106421B0FBF1F000F00F0004432C81C0
:1013100006B0BDE8F087000000380140014688882B
:10132000C0F308007047C1F30802828070474FF491
:101330001651016000218180C18001810C21418111
:1013400000218181704700BFFEE700000FB4054B0C
:1013500010B503A9044A029800F018F810BC5DF813
:1013600014FB0000211800086000002002E008C8FB
:10137000121F08C1002AFAD170477047002001E00F
:1013800001C1121F002AFBD1704700002DE9FF4F59
:101390008DB00F460546002606E025280BD0DDE976
:1013A0000F1290476D1C761C28780028F5D111B0DB
:1013B0003046BDE8F08F0024A246A1460122E9494B
:1013C00000E0044315F8013F203B02FA03F0084215
:1013D000F7D128782A2810D06FF02F022878A0F1B2
:1013E0003001092914D80AEB8A0102EB410144F0CB
:1013F000020400EB010A6D1CF0E701CF5FEA000A6E
:1014000003D544F40054CAF1000A44F002046D1CF0
:1014100028782E2817D115F8010F44F004042A2843
:101420000ED06FF02F022878A0F1300109290AD8D8
:1014300009EB890102EB410100EB01096D1CF2E7A8
:1014400057F8049B6D1C28786C280FD006DC4C28BC
:1014500017D068280DD06A2814D104E0742810D061
:101460007A280FD10DE044F400140AE044F480140B
:1014700001E044F440146978814202D104F58014FB
:101480006D1C6D1C28786E281ED00CDC632830D0B3
:1014900004DC00288BD0582811D19FE0642867D045
:1014A00069280CD164E073282DD004DC6F2872D039
:1014B000702804D194E075286ED078286DD0DDE9CD
:1014C0000F129047761C4BE1C4F30250022806D05D
:1014D000032809D0042801CF09D0066040E101CFDC
:1014E000F117C0E900613BE101CF068038E10670E9
:1014F00036E117F8040B8DF8000000208DF801008C
:10150000EB46012003E057F804BB4FF0FF306107C2
:101510004FF0000102D40DE008F101018846494571
:101520000FDA8045F8DB1BF808100029F4D108E039
:1015300008F1010188468142FADB1BF808100029F6
:10154000F6D1DDE90F23AAEB08008146214600F021
:1015500031F9304400EB080604E0DDE90F121BF816
:10156000010B9047B8F10108F7D221464846F2E056
:101570000A21C4F302524FF0000B0891022A04D052
:1015800001CFC117032A09D00AE0FF1D27F0070782
:10159000F7E8020108E02CE01EE01FE000B2C117EE
:1015A000042A01D140B2C117021E71F1000206DA0D
:1015B0000023D0EB030063EB01012D2202E02205A2
:1015C00004D52B228DF82420012203E0E20701D06C
:1015D0002022F7E7904653E00A210BE0102109E0B2
:1015E00010214FF0000B44F004044FF0080908915B
:1015F00003E008214FF0000B0891C4F30252022AC5
:1016000004D001CF0021032A06D006E0FF1D27F0F9
:101610000707F7E8020103E080B2042A00D1C0B254
:101620004FF0000822072BD52A78702A07D0DDF862
:1016300020C08CF0100C5CEA0B0C05D00EE04022B0
:101640008DF82420012208E050EA010306D030235F
:101650008DF824308DF8252002229046089B83F0D7
:10166000080353EA0B030BD150EA010201D16207D0
:1016700006D530228DF824204FF00108A9F1010988
:101680002A78582A04D038A20B9208AA0A920BE0B2
:101690003AA2F9E75B46089AFEF746FD0B9B9B5C76
:1016A0000A9A521E0A92137050EA0102F2D10A9865
:1016B000ADEB000000F1200B600702D524F480346C
:1016C00001E04FF00109D94502DDA9EB0B0000E074
:1016D000002000EB0B0141440890AAEB010AE00353
:1016E00006D4DDE90F232146504600F063F8064496
:1016F0004FF0000908E009A911F80900DDE90F120F
:10170000904709F10109761CC145F4DBE0030CD5D3
:10171000DDE90F232146504600F04CF8064404E072
:10172000DDE90F1230209047761C0899481E08907A
:101730000029F5DC08E00A980A990078491C0A910A
:10174000DDE90F129047761CBBF10001ABF1010BF4
:10175000F1DC21465046DDE90F2300F019F806447C
:101760006D1C21E60928010030313233343536371B
:1017700038396162636465660000000030313233DD
:10178000343536373839414243444546000000007D
:101790002DE9F041044600251E461746880404D46E
:1017A00005E039462020B0476D1C641EF9D5284657
:1017B000BDE8F0812DE9F041044600251E46904623
:1017C000C80301D5302700E02027880404D505E0B0
:1017D00041463846B0476D1C641EF9D52846BDE821
:1017E000F08100000148C08A7047000064000020BA
:1017F0000148808A704700006400002070B50446EC
:101800000D461646324629462046FEF711FD70BDAC
:1018100010B503460C4621461846FEF791FD10BD53
:1018200070B504460D46E1B20548FFF77CFD00BFE8
:1018300080210348FFF7AAFC0028F9D0204670BD9C
:10184000003801401CB500244FF4A060FFF7D6F823
:10185000FFF762FAFEF786FDFFF758FC2AA0FFF7B4
:1018600075FD35A0FFF772FD3EA0FFF76FFD41A0AB
:10187000FFF76CFD4CA0FFF769FD54A0FFF766FD74
:101880005AA0FFF763FD66A0FFF760FDFFF7DAFAE5
:10189000FFF75CF9FEF712FFFEF7AAFC6CA0FFF75A
:1018A00055FD74A0FFF752FD6846FEF715FE05468C
:1018B000012D07D19DF800209DF802107AA0FFF7B6
:1018C00045FD02E088A0FFF741FD92A0FFF73EFD35
:1018D00019E0FEF7FFFEFEF7CDFC2046FFF790FA79
:1018E00041F2883188420ED3FFF792FA0446FFF79F
:1018F0007FFF0546FFF776FF0646324629468CA055
:10190000FFF724FD00BFE4E70D0A3D3D3D3D3D3DB1
:101910003D3D3D3D3D3D3D3D3D3D3D3D3D3D3D3DF7
:101920003D3D3D3D3D3D3D3D3D3D3D3D3D3D3D3DE7
:101930003D3D0D0A0000000020204D6F646275736C
:101940002052545520B4D3D5BE202D2044485431C4
:101950003120CEC2CAAAB6C8B4ABB8D0C6F70D0AF9
:10196000000000002020B4D3D5BEB5D8D6B73A20A9
:10197000320D0A002020B1A3B3D6BCC4B4E6C6F72A
:101980003A2034303031313DCEC2B6C828A1E629E4
:101990002C2034303031323DCAAAB6C82825255211
:1019A00048290D0A000000002020CDA8D0C5B2CEE5
:1019B000CAFD3A2052532D34383520393630306242
:1019C0007073203845310D0A000000002020444883
:1019D000543131D2FDBDC53A20504231342028B5B2
:1019E000A5D7DCCFDF290D0A0000000020205253CC
:1019F0002D343835D2FDBDC53A20504231302854FF
:101A0000582920504231312852582920504230283C
:101A100044452920504231285245290D0A00000032
:101A20003D3D3D3D3D3D3D3D3D3D3D3D3D3D3D3DE6
:101A30003D3D3D3D3D3D3D3D3D3D3D3D3D3D3D3DD6
:101A40003D3D3D3D3D3D3D3D0D0A0D0A0000000080
:101A5000CFB5CDB3B3F5CABCBBAFCDEAB3C9A3AC68
:101A6000B5C8B4FDD6F7D5BEC2D6D1AF2E2E2E0D39
:101A70000A000000D7A2D2E23A2044485431312073
:101A8000B6C1C8A1BCE4B8F4203E3D3220C3EBA3EC
:101A9000ACCAFDBEDDBDF6CAB9D3C3D5FBCAFDB223
:101AA000BFB7D60D0A0D0A005BD4A4B6C1C8A15DAC
:101AB00020444854313120CFECD3A6D5FDB3A33A0E
:101AC0002054656D703D2564A1E62C2048756D6934
:101AD0003D2564252552482028CAFDBEDDD2D1B659
:101AE000AAC6FA290D0A00005BD4A4B6C1C8A15D3C
:101AF00020444854313120CFECD3A6CAA7B0DCA390
:101B0000ACC7EBBCECB2E9D3B2BCFEC1ACBDD30DEB
:101B10000A000000BFAACABCB6C1C8A120444854EC
:101B2000313120CAFDBEDD2E2E2E0D0A0D0A000019
:101B30005B44485431315D20CEC2B6C83A2025649A
:101B4000A1E62C20CAAAB6C83A2025642525524809
:101B50000D0A000010B504460C48007828B9002092
:101B60000B49088001200949087009480088FF28AE
:101B700007D8074801880088401C054A108005489E
:101B80004454FFF745F90449086010BD40000020A7
:101B9000420000207C0000204400002010B53220CC
:101BA000FEF7C2FF01210448FEF783FD022102482F
:101BB000FEF77FFD10BD0000000C014008B50121BB
:101BC0000920FEF737FF4FF48060ADF800000320D6
:101BD0008DF8020018208DF8030069461548FEF7BD
:101BE000D2FC4FF40060ADF8000004208DF8030033
:101BF00069461048FEF7C7FC0120ADF80000102030
:101C00008DF8030069460B48FEF7BDFC0121094829
:101C1000FEF74DFD0220ADF8000010208DF8030006
:101C200069460448FEF7AFFC02210248FEF73FFD7B
:101C300008BD0000000C0140002002490880024954
:101C400008707047420000204000002070B5064632
:101C50000C46A01CB0F5807F00D970BD002004E0C8
:101C6000315C124A1154411C88B2A042F8DB214673
:101C70003046FEF76DFE0546280A0C4908550A460F
:101C8000601C1554002240F225510948FFF7B5FAAF
:101C9000A01C81B20548FEF779FF012240F22551D0
:101CA0000348FFF7AAFA00BFD7E700007C01002035
:101CB00000480040F8B504460D46164604B9F8BD84
:101CC0008DF8004045F080008DF801008DF802602D
:101CD00003216846FFF7BAFF00BFF0E71FB50121F7
:101CE0000420FEF797FE01A8FFF732F941F61F40E6
:101CF000ADF804000020ADF806000920ADF808009A
:101D00000020ADF80A0001A90F48FFF7CFF8012124
:101D10000D48FFF7A1F8012211460B48FFF7BCF868
:101D20001E208DF8000003208DF8010000208DF8A2
:101D3000020001208DF803006846FEF727FE01210E
:101D40000148FFF78CF81FBD0008004000B585B0C2
:101D500001218804FEF75EFE01A8FFF7E8FA4FF4C0
:101D6000165001904FF48050ADF808000020ADF8F7
:101D70000A004FF48060ADF80C000020ADF81000B0
:101D80000C20ADF80E0001A91148FFF75BFA012203
:101D900040F225510E48FFF730FA002240F2277139
:101DA0000B48FFF72AFA27208DF8000002208DF853
:101DB000010000208DF8020001208DF80300684624
:101DC000FEF7E4FD01210248FFF793F905B000BDDD
:101DD00000480040014648780A7840EA02207047EF
:101DE00000C1814001C0804101C0804100C18140EB
:101DF00001C0804100C1814000C1814001C08041DB
:101E000001C0804100C1814000C1814001C08041CA
:101E100000C1814001C0804101C0804100C18140BA
:101E200001C0804100C1814000C1814001C08041AA
:101E300000C1814001C0804101C0804100C181409A
:101E400000C1814001C0804101C0804100C181408A
:101E500001C0804100C1814000C1814001C080417A
:101E600001C0804100C1814000C1814001C080416A
:101E700000C1814001C0804101C0804100C181405A
:101E800000C1814001C0804101C0804100C181404A
:101E900001C0804100C1814000C1814001C080413A
:101EA00000C1814001C0804101C0804100C181402A
:101EB00001C0804100C1814000C1814001C080411A
:101EC00001C0804100C1814000C1814001C080410A
:101ED00000C1814001C0804101C0804100C18140FA
:101EE00000C0C101C30302C2C60607C705C5C404BA
:101EF000CC0C0DCD0FCFCE0E0ACACB0BC90908C82A
:101F0000D81819D91BDBDA1A1EDEDF1FDD1D1CDC19
:101F100014D4D515D71716D6D21213D311D1D01089
:101F2000F03031F133F3F23236F6F737F53534F479
:101F30003CFCFD3DFF3F3EFEFA3A3BFB39F9F838E9
:101F400028E8E929EB2B2AEAEE2E2FEF2DEDEC2CD9
:101F5000E42425E527E7E62622E2E323E12120E049
:101F6000A06061A163A3A26266A6A767A56564A439
:101F70006CACAD6DAF6F6EAEAA6A6BAB69A9A868A9
:101F800078B8B979BB7B7ABABE7E7FBF7DBDBC7C99
:101F9000B47475B577B7B67672B2B373B17170B009
:101FA00050909151935352929656579755959454F9
:101FB0009C5C5D9D5F9F9E5E5A9A9B5B9959589869
:101FC000884849894B8B8A4A4E8E8F4F8D4D4C8C59
:101FD00044848545874746868242438341818040C9
:101FE0000020000800000020640000006C130008BE
:101FF00064200008640000201C0700007C13000817
:1020000000A24A04000000000000000001020304D6
:10201000060708090000000001020304010203048E
:10202000060708090204060800000000000000007E
:1020300000000000000000000000000000000000A0
:102040000000000000000000000000000000000090
:102050000000000000000000000000000000000080
:04206000000000007C
:04000005080000ED02
:00000001FF
