:020000040800F2
:1000000038140020C5010008B9220008BD1B0008F3
:10001000851E0008550B0008392D0008000000005F
:10002000000000000000000000000000452500085E
:10003000570B0008000000005D2300081D26000883
:10004000DF010008DF010008DF010008DF01000810
:10005000DF010008DF010008DF010008DF01000800
:10006000DF010008DF010008DF010008DF010008F0
:10007000DF010008DF010008DF010008DF010008E0
:10008000DF010008DF010008DF010008DF010008D0
:10009000DF010008DF010008DF010008DF010008C0
:1000A000DF010008DF010008DF010008DF010008B0
:1000B000DF010008DF010008DF010008DF010008A0
:1000C000DF010008DF010008DF010008DF01000890
:1000D000DF01000871290008DD290008752A0008E1
:1000E000DF010008DF010008DF010008DF01000870
:1000F000DF010008DF010008DF010008DF01000860
:10010000DF010008DF010008DF010008DF0100084F
:10011000DF010008DF0100087D260008DF0100087C
:10012000DF010008DF010008DF010008DF0100082F
:10013000DF010008DF010008DF010008DF0100081F
:10014000DF010008DF010008DF010008DF0100080F
:10015000DF010008DF010008DF010008DF010008FF
:10016000DF010008DF010008DF010008DF010008EF
:10017000DF010008DF010008DF010008DF010008DF
:10018000DF010008DF010008DF010008DF010008CF
:10019000DF010008DF010008DF010008DF010008BF
:1001A000DF010008DF010008DF010008DFF810D0E0
:1001B00000F07EFA0048004739390008AFF30080AC
:1001C000381400200648804706480047FEE7FEE74F
:1001D000FEE7FEE7FEE7FEE7FEE7FEE7FEE7FEE7F7
:1001E00021260008AD01000840EA01039B0703D067
:1001F00009E008C9121F08C0042AFAD203E011F866
:10020000013B00F8013B521EF9D27047D2B201E027
:1002100000F8012B491EFBD270470022F6E710B50B
:1002200013460A4604461946FFF7F0FF204610BD64
:1002300030B505462A460B4612F8010B13F8014B60
:1002400008B1A042F8D01CB1002802D06D1CF1E723
:10025000284630BDCAB2401E10F8011F8A4202D0A3
:100260000029F9D100207047421C10F8011B002919
:10027000FBD1801A704710B5002200E0521C835C4D
:100280008C5CA34201D1002BF8D1D8B2E1B2401A64
:1002900010BD30B505460020034600E05B1C9342CC
:1002A00005D2EC5CC85C201A01D1002CF6D130BD1F
:1002B00030B50B46014600202022012409E021FA36
:1002C00002F59D4205D303FA02F5491B04FA02F533
:1002D0002844151EA2F10102F1DC30BD2DE9F05FCA
:1002E0000546002092469B468846064681464024A5
:1002F0001BE0284641464746224600F0FAF953469D
:100300005A46C01A914110D311461846224600F0B1
:10031000E1F92D1A67EB01084F4622460120002122
:1003200000F0D8F917EB00094E41201EA4F101049A
:10033000DFDC484631462A464346BDE8F09F2DE9BA
:10034000FE4F804681EA0300C00F0C46009021F06A
:10035000004123F00045B8EB0200A94105D2404618
:10036000214690461C460B46024623F000401043AF
:1003700047D0270DC7F30A00C3F30A510290401A71
:10038000019040286BDAC3F3130040F4801B0098FF
:10039000924620B10023D2EB030A63EB0B0B0198CA
:1003A0005946C0F14002504600F094F906460D4609
:1003B00050465946019A00F0ACF910EB0800614133
:1003C000002487EA115284EAE7731A4340D0009A66
:1003D00062B3019A012A4FEA075215DC001B61EB58
:1003E00002014FF0004202EA0752CDE90042001C30
:1003F00041F5801132462B4600F0ACF903B0BDE860
:10040000F08F40462146F9E7001B61EB0201001C1A
:1004100041F5801300185B412018A2F5001747EB47
:10042000030140EAD570B6196D4111E06D084FEA3D
:10043000360645EAC0754FEA0752001B61EB020120
:10044000001C41F5801149084FEA30000019514164
:1004500032462B4603B0BDE8F04F00F06CB900986F
:10046000012240000023D0EB020263EBE07300980E
:1004700021464FEAE074B8EB000061EB0401E9E7C4
:1004800083F000435BE781F0004158E72DE9FE4F20
:1004900081EA030404F0004421F0004100944FF08D
:1004A000000B23F0004350EA01045ED052EA03043B
:1004B0005BD0C3F30A54C1F30A552C44A4F2F334BD
:1004C0000194A0FB0254C1F3130141F48011C3F362
:1004D000130343F4801301FB024400FB034E840A20
:1004E000970A44EA815447EA8357A4FB07680295B8
:1004F0008D0A05FB07854FEA932C04FB0C54270556
:10050000029D4FEA065847EA1637B5EB08056EEB31
:10051000070C870E920E47EA811742EA8312A7FB67
:100520000201B6EB0B0164EB00042B0D43EA0C3324
:100530005E1844EB1C50DA465146E7FB0201C5F356
:1005400013044FEA0B3343EA14534FEA0432019C7D
:1005500043EA0603A4F10C040294009CCDE900B424
:1005600000F0F8F803B0BDE8F08F00200146F9E78D
:100570002DE9F04D81EA030404F0004B21F0004521
:1005800014464FF0000A23F0004150EA050220D043
:1005900054EA01021DD0C5F30A570246C5F31303FE
:1005A000C1F31300C1F30A5640F4801543F48013DD
:1005B000A7EB0608101BD64608F2FD3873EB0500C2
:1005C00002D308F1010801E092185B41B8F1000F75
:1005D00003DA00200146BDE8F08D00204FF48011C1
:1005E000064684460EE0171B73EB050705D3121B66
:1005F00063EB050306434CEA010C49084FEA30005F
:1006000092185B4150EA0107EDD152EA030012D083
:1006100082EA040083EA0501084305D0101BAB41C0
:1006200006D20122002306E000224FF0004302E040
:100630006FF0010253101AEB06004CEB085110EB5F
:100640000A0041EB0B01BDE8F04D00F074B8C1F3B6
:100650000A52C1F3130140F2FF3341F480119A4270
:1006600002DA00200146704740F233439A42A2F278
:10067000334202DC524200F03CB800F02BB80000DC
:1006800030B5041E71F1000404DB4FF00044404219
:1006900064EB0101141E73F1000405DB1C464FF0EE
:1006A0000043524263EB0403994208BF904230BDBD
:1006B000064C074D06E0E06840F0010394E80700AF
:1006C00098471034AC42F6D3FFF774FD204500087C
:1006D00040450008202A04DB203A00FA02F10020FD
:1006E00070479140C2F1200320FA03F31943904070
:1006F0007047202A04DB203A21FA02F000217047DB
:1007000021FA02F3D040C2F1200291400843194679
:100710007047202A06DBCB17203A41FA02F043EA61
:10072000E07306E041FA02F3D040C2F120029140AA
:1007300008431946704710B5141E73F1000408DA17
:10074000401C41F1000192185B411A4301D120F095
:10075000010010BD2DE9F04D92469B4611B1B1FA52
:1007600081F202E0B0FA80F220329046FFF7B2FF49
:1007700004460F4640EA0A0041EA0B0153465A4636
:10078000084313D0114653EA010019D0C8F14002C2
:100790005046FFF7AEFF05460E46504659464246C4
:1007A000FFF798FF084305D0012004E020463946B2
:1007B000BDE8F08D0020054346EAE0762C43374340
:1007C0000A986305E40AA0EB08000022FD0A44EA47
:1007D00047540A3002D500200146E9E70105101907
:1007E0006941DDE9084500196941BDE8F04DA2E71E
:1007F0001FB50020039002900190009003A90120F2
:1008000002F059FF02A9022002F055FF01A90020C1
:1008100002F051FF6946032002F04DFFBDF80800C9
:10082000BDF80030C1B2BDF80C00BDF80420C0B264
:1008300000F006F800F026F900F0DAF81FBD00001D
:1008400030B5154C0025257165710125232801D986
:10085000657102E01B2800D92571232807D8462995
:1008600005D8B2F5FA6F02D3B3F5167F01D902208D
:1008700030BD1C3807280BD9142909D3A2F5FA6218
:10088000B2F57A7F04D9A3F59673B3F5967F01D8B4
:10089000012030BD002030BD240000200148007838
:1008A000704700002400002010B500F033F914490F
:1008B0004FF4006048834FF47A7001F093F901F02F
:1008C00053FC01F043FC0F4800210170417081602E
:1008D00001714171052181700121C1700021012048
:1008E00001F01AFA6421022001F016FA0021032017
:1008F00001F012FABDE8104003A002F01FBA000098
:1009000000200240240000205B414C41524D5D20FC
:10091000416C61726D2073797374656D20696E69C5
:100920007469616C697A65642E0D0A0070B52F4C8C
:1009300001250526207800280FD06421AA1E012851
:1009400016D0022833D00021012001F0E5F9BDE8DE
:1009500070400021022001F0DFB90021012001F0E8
:10096000DBF96421022001F0D7F9A670E57070BDB3
:1009700094F90300002808DDA078401D642802D304
:10098000A170E27009E0A07007E0A0780A2802D800
:10099000A670E57001E0401FA070A178012001F071
:1009A000BBF9A178BDE87040022001F0B5B994F917
:1009B0000300002808DDA078401D642802D3A17040
:1009C000E27009E0A07007E0A0780A2802D8A670BB
:1009D000E57001E0401FA070A178012001F09CF9B2
:1009E000BDE870400021022001F096B924000020EB
:1009F00030B4104900220878012802D08A6030BC47
:100A000070478868401C88600A28F8D38A604C7850
:100A1000094B4FF40060012C06D018830120487068
:100A200030BC06A002F08AB958834A7030BC0CA0D2
:100A300002F084B924000020002002405B414C41B8
:100A4000524D5D2042656570204F4E2028776172BF
:100A50006E696E67206379636C65290D0A0000007A
:100A60005B414C41524D5D2042656570204F4646CA
:100A700020287761726E696E67206379636C6529DF
:100A80000D0A00003EB50446164D2978A1420DD04E
:100A90001548D0E900238068CDE9002302905DF875
:100AA00024205DF8211011A002F048F92C7018499B
:100AB00000234FF400603CB10122012C07D0022C2E
:100AC0000CD048836B703EBD48836B703EBD6B7825
:100AD000AC682343FAD16A7008833EBD08836A700C
:100AE0003EBD000024000020904100085B414C41C5
:100AF000524D5D204C6576656C206368616E67655C
:100B0000643A202573202D3E2025730D0A00000035
:100B1000002002407CB50121080201F021FC4FF4C5
:100B20000064009401208DF8040000208DF8060078
:100B300002208DF807008DF80500054D694628460E
:100B400000F0EAFF2146284601F034F87CBD0000A1
:100B500000200240FEE770474FF0E02102E00A6902
:100B6000D203FCD5401E421CF9D1704770B5002459
:100B70004FF400710D4801F01FF84FF4FA60FFF7D1
:100B8000EBFF4FF4FA750CE02B46002208A109A0F8
:100B900000F040F808B1012070BD00F0FBFD641CBE
:100BA000E4B20A2CF0D3002070BD0000000802401F
:100BB0004F4B00004154000030B589B004460D464B
:100BC000002C18D0BDB12B460DA2202101A802F0A7
:100BD000C5F84FF4FA7300220DA101A800F01AF82D
:100BE00058B12946204600F0E9FD3220FFF7B4FF56
:100BF000012009B030BD0020FBE70020F9E700002C
:100C000041542B43495053454E443D257500000047
:100C10003E2000002DE9F04184460D4616461F4651
:100C2000224CB4F800046FF30E00A4F800046146EF
:100C30001FA000F083FD55EA06001AD03846FFF7E2
:100C40008BFFB4F800140020C1F30E01605404F5CA
:100C5000806420886FF30E002080208820F40040FC
:100C600020808DB186B129461048FFF7E1FA48B9D6
:100C700002E00120BDE8F08131460C48FFF7D8FAC8
:100C80000028F7D00120F5E73DB129460748FFF7D6
:100C9000CFFA0028EED00120ECE731460348FFF7F9
:100CA000C7FA0028E6D00120E4E700002001002078
:100CB00025730D0A0000000000B58BB006A101A845
:100CC00002F066F84FF4FA73002207A101A8FFF7BB
:100CD000A1FF0BB000BD000041542B4357444843D3
:100CE000503D312C310000004F4B000000B585B065
:100CF000002801D0012200E0002206A1684602F08F
:100D000047F84FF4FA73002206A16846FFF782FF06
:100D100005B000BD41542B4349504D55583D256405
:100D2000000000004F4B00001CB50121042001F021
:100D300017FB4FF48070009001208DF804008DF8AF
:100D4000070002208DF80500074C6946204600F098
:100D5000E3FE0121042001F003FB611500916946C7
:100D6000204600F0D9FE1CBD0008024010B5FFF778
:100D7000DBFF00F047FD064C4FF40071204600F009
:100D80001BFFA1152046BDE8104000F013BF000076
:100D90000008024000B59FB00B46024606A101A81C
:100DA00001F0F6FF41F28833002208A101A8FFF705
:100DB00031FF1FB000BD000041542B43574A415042
:100DC0003D222573222C2225732200004F4B000068
:100DD000F0B5B9B004460F4615461E46642120A85A
:100DE000FFF71BFA14B1012C0FD107E03B4612A20A
:100DF00012A120A8009501F0CBFF06E03B4613A20C
:100E00000EA120A8009501F0C3FF052E06D220AB4D
:100E100032460FA102A801F0BBFF04E020AA11A1F5
:100E200002A801F0B5FF4FF47A6312A215A102A83F
:100E3000FFF7F0FE39B0F0BD544350002225732275
:100E40002C222573222C25730000000055445000ED
:100E500041542B43495053544152543D25642C2551
:100E60007300000041542B43495053544152543DA8
:100E700025730000414C5245415920434F4E4E4589
:100E8000435400004F4B000030B587B00024069457
:100E9000059406A9012002F00EFC054605A90220D2
:100EA00002F009FC054311D021A001F047FF002406
:100EB00000F084F8FFF79CFDFFF738FD6420FFF792
:100EC0004BFE641C642CF3DB07B030BD049404A912
:100ED000002002F0F0FB00B10494039403A9032066
:100EE00002F0E9FB00B10394FFF7D8FC044600943C
:100EF000BDF81400BDF80C30C1B2BDF81800BDF843
:100F00001020C0B200F044FB68B1BDF80C00CDE980
:100F10000004BDF81030BDF81420BDF818100FA063
:100F200001F00CFFC3E71DA001F008FFBFE70000C0
:100F30005B4D6F646275735D20B4D3D5BE32CEC293
:100F4000CAAAB6C8CAFDBEDDCEDED0A7A3ACB5C85E
:100F5000B4FDB2C9BCAF0D0A000000003E205B45E5
:100F60005350383236365D20C9CFB1A8B3C9B9A6BF
:100F70003A2054656D703D25752C48756D3D25757D
:100F80002C4C696768743D25752C4D51323D257593
:100F90002C4572726F723D25750D0A005B455350EA
:100FA000383236365D20C9CFB1A8CAA7B0DC2CC90B
:100FB000D4BAF3D6D8CAD40D0A0000002DE9F04700
:100FC000ADF5906D0026CDF87C64CDF878640DF514
:100FD0008F61081D02F072FC002874D1BDF87834CE
:100FE000052B70D3DDF87C1403220878B2EB101FB8
:100FF00069D10120002501249C4264D22246641C50
:101000008A5C02F07F0707FB0055C0011206F3D48B
:10101000A01C98427AD808194278085D42EA002854
:10102000A01C00EB08079F4270D8B8F1BF0F01D396
:101030004FF0BF0801444246EEA8FFF7D5F8EEA8EE
:1010400000F80860381B854260D3281A84B2BDF8C6
:1010500078143819884259D8EEA3F0A2F2A1C6A894
:1010600001F096FEEBA3EDA2F9A19EA801F090FE7F
:10107000E8A3EAA2FEA176A801F08AFEC6A9EEA81E
:10108000FFF7F9F8DFF80C84F0B19EA9EEA8FFF79E
:10109000F2F800283AD1FF2C00D3FF24DDF87C04BD
:1010A0002246C11936A8FFF79FF836A80655302109
:1010B0002AA8FFF7B2F8F84803C8CDE928010025AF
:1010C000002428AF2EE021E0FF2C00D3FF24DDF820
:1010D0007C042246C11936A8FFF786F836A80655C3
:1010E00036A9EEA001F02AFE36A9F0A001F026FEF6
:1010F000B8F800046FF30E00A8F8000488F8006048
:10110000B8F8000420F40040A8F800040DF5906D34
:10111000BDE8F08757F8241036A8FFF789F800B12A
:101120000546641C022C01DA002DF3D00DB33A21E0
:101130002846FFF78FF8E0B1411C00E0491C087811
:101140002028FBD00928F9D008782AAC222801D021
:10115000084610E0481C07462221FFF77BF840B103
:10116000C51B302D16D22A4639462AA8FFF73CF86F
:1011700066550FE0401C027832B12C2A04D07D2A3B
:1011800002D0421A2F2AF5D3451A2A462AA8FFF779
:101190002BF866554FF0FF354FF000092F46C4A1DC
:1011A00036A8FFF745F800B936A8C4A1FFF740F804
:1011B000F0B33A21FFF74EF8D0B3441C00E0641CB2
:1011C00020782028FBD00928F9D020787B2812D15C
:1011D000BEA12046FFF72CF840B13A21FFF73AF8BC
:1011E0000446200002D0641C00E0641C2078202803
:1011F000FBD00928F9D02078222800D1641C0020D7
:1012000000226FF02F0306E000EB800003EB4000AC
:101210000844641C01222178A1F1300CBCF1090FB3
:10122000F2D92AB1002800DA0020642802DD00E0AB
:1012300003E0642007464FF001099DA136A8FEF7A0
:10124000F7FF00B936A8A3A1FEF7F2FF90B33A2149
:10125000FFF700F870B3441C00E0641C20782028DD
:10126000FBD00928F9D020787B280DD197A1204602
:10127000FEF7DEFF40B13A21FEF7ECFF0446200006
:1012800002D0641C00E0641C20782028FBD00928D0
:10129000F9D0042291A12046FEF7FBFF58B10522A8
:1012A00090A12046FEF7F5FF38B12078312806D00E
:1012B000302806D006E0012504E0002502E00125E3
:1012C00000E00025894C4FF4407AB9F1000F41D07D
:1012D000002F00DA0027642F00DD6427F9B2012017
:1012E00000F01AFDF9B2022000F016FDF9B2032059
:1012F00000F012FD002F01DD012000E00020206041
:1013000039467BA001F01AFD9DF8A80008B12AAB70
:1013100000E041A37CA2802108A801F01FFD08ABDA
:1013200076AA5146824802F053FA002803DD81B2C2
:101330007F48FFF741FCB8F800046FF30E00A8F8EF
:10134000000488F80060B8F8000420F40040A8F811
:101350000004DBE6681C42D025600DB1642100E08A
:101360000021012000F0D8FC0DB1642100E0002133
:10137000022000F0D1FC0DB1642100E00021032027
:1013800000F0CAFC0DB155A100E056A169A001F022
:10139000D5FC9DF8A80008B12AAB00E01EA35AA214
:1013A000802108A801F0DAFC08AB76AA5146604813
:1013B00002F00EFA002803DD81B25D48FFF7FCFB66
:1013C000B8F800046FF30E00A8F8000488F8006075
:1013D000B8F8000420F40040A8F8000496E69DF850
:1013E000A80008B12AAB00E00BA356A2A0216846D2
:1013F00001F0B4FC6B4676AA51464D4802F0E8F97C
:10140000002803DD81B24A48FFF7D6FBB8F8000494
:10141000B0E0000054657374310000007543713210
:101420003164667368580000247379732F25732F15
:1014300025732F7468696E672F70726F7065727490
:10144000792F706F73742F7265706C7900000000D3
:10145000247379732F25732F25732F7468696E6732
:101460002F70726F70657274792F7365740000004D
:10147000247379732F25732F25732F7468696E6712
:101480002F70726F70657274792F7365745F7265F7
:10149000706C7900200100209C4100085B4F6E6554
:1014A0004E45545D5B41434B5D2025730D0A0000A2
:1014B00022706172616D7322000000002242726925
:1014C0006768746E65737322000000002276616C99
:1014D00075652200224C65642200000074727565F7
:1014E0000000000066616C73650000003C00002095
:1014F0005B5345545D204272696768746E6573730F
:101500003D25640D0A0000007B226964223A2225F1
:1015100073222C22636F6465223A302C226D73672C
:10152000223A2273756363657373227D00000000A5
:10153000220500205B5345545D204C65643D2573B6
:101540000D0A00007B226964223A222573222C2294
:10155000636F6465223A2D312C226D7367223A2223
:10156000696E76616C696420706172616D73227D51
:10157000000000006FF30E00A8F8000488F8006077
:10158000B8F8000420F40040A8F80004BEE500000C
:101590002DE9F041ECB08046729F0E4614461D4680
:1015A00018A31AA21CA144A801F0F2FBCDE902572E
:1015B000CDE900644346204A4FF4807104A801F04D
:1015C000CDFB04AB44AA4FF440711C4802F000F973
:1015D0000446002C06DC1AA001F0B0FB00206CB021
:1015E000BDE8F081214625A001F0A8FBA1B2134877
:1015F000FFF7E2FA08B10120F1E726A001F09EFB17
:101600000020ECE7546573743100000075437132BB
:101610003164667368580000247379732F25732F23
:1016200025732F7468696E672F70726F706572749E
:10163000792F706F73740000A44400082205002005
:101640005B4D5154545D5B4552524F525D20B9B9C8
:10165000D4EC5055424C495348B1A8CEC4CAA7B0A7
:10166000DCA3A8BBBAB3E5B2BBD7E3BBF2B2CECA28
:10167000FDB7C7B7A8A3A90D0A0000005B4D5154E0
:10168000545D2041542B43495053454E443D2575EC
:101690000D0A00005B4D5154545D5B4552524F5250
:1016A0005D20B7A2CBCD5055424C495348B1A8CE8E
:1016B000C4CAA7B0DCA3A845535038323636CEB4DE
:1016C000CFECD3A6BBF2B3ACCAB1A3A90D0A0000FC
:1016D00002F060B940F6C413002805D0012808D0F4
:1016E00002280BD00020704707A20AA10AA0FFF72A
:1016F00091BA05A207A10BA0FFF78CBA02A205A11F
:101700000BA0FFF787BA00006E6F206368616E67F9
:10171000650000004F4B000041542B43574D4F4490
:10172000453D310041542B43574D4F44453D320018
:1017300041542B43574D4F44453D33000FB4F0B552
:10174000C1B047AB4FF4807101A8469A01F034FB59
:10175000054600200090FF2D16D800240C4F01AE46
:101760000AE08021384601F0DFF90028F9D0315D28
:10177000384601F07DFA641CAC42F2DB4021384669
:1017800001F0D2F90028F9D041B0F0BC5DF814FBAB
:101790000048004070B5084D4FF4007421462846BB
:1017A00000F008FA4FF4FA70FFF7D6F92146284600
:1017B000BDE8704000F000BA000802402DE9F04199
:1017C00005460E46002D18D0002E16D000240C4FD2
:1017D0000BE08021384601F0A7F90028F9D0295DF7
:1017E000384601F045FA641CA4B2B442F1D340215A
:1017F000384601F099F90028F9D0BDE8F0810000E1
:101800000048004070B586B00121042000F0A8FD1A
:101810000121880400F0B2FD254E07220B2130463D
:1018200000F0B8F907220A21304600F0B3F900248D
:101830008DF8164001208DF8170002258DF8145000
:10184000810204918DF8155004A9304600F064F926
:101850008DF81450A802049004A9304600F05CF9F9
:101860004FF4E1300090ADF80440ADF80640ADF81B
:101870000840ADF80C400C20ADF80A000D4C69464C
:10188000204601F093F9012240F22551204601F053
:1018900072F9012240F22441204601F06CF900F077
:1018A0000BF80121204601F033F906B070BD0000AD
:1018B000000802400048004008B54FF4A06000F066
:1018C00043FD27208DF8000000208DF801008DF8E1
:1018D000020001208DF80300684600F001FD08BDFC
:1018E0002DE9F04105460E46FFF740FA33A001F01E
:1018F00025FA3DA001F022FA4FF48071404800F033
:101900005BF9FFF747FF2DA001F018FA4FF448707C
:10191000FFF722F900244FF4FA7709E0641C032C46
:1019200003DB38A001F00AFA06E03846FFF714F9A5
:10193000FFF71CF90028F1D0032C02DA41A001F0D6
:10194000FDF91EA001F0FAF90020FFF7CFF90028F9
:10195000FAD00020FFF7BEFE0028FAD0FFF7ACF95E
:101960000028FBD031462846FFF714FA0028F9D0AA
:10197000324629463AA001F0E1F946A001F0DEF92D
:101980000EA001F0DBF94AA001F0D8F9FFF7A0FEA4
:1019900050B152490120087051A001F0CFF9BDE8C3
:1019A000F04106A001F0CAB95A4801F0C7F94FF456
:1019B0007A742046FFF7D0F8FBE700002D2D2D2D7F
:1019C0002D2D2D2D2D2D2D2D2D2D2D2D2D2D2D2D47
:1019D0002D2D2D2D2D2D2D2D2D2D2D2D2D2D2D2D37
:1019E0002D2D2D2D2D0D0A005B45535038323636E6
:1019F0005DB3F5CABCBBAFCDEAB3C9A1A30D0A0064
:101A0000000802405B455350383236365D5B455224
:101A1000524F525D20415420B2E2CAD4CAA7B0DC72
:101A200028B6E0B4CE292CC7EBBCECB2E9BDD3CFCD
:101A3000DF2FB2A8CCD8C2CA2FB4AEBFDAD6D0B688
:101A4000CF0D0A005B455350383236365D20415485
:101A500020B2E2CAD4CDA8B9FDA1A30D0A000000AE
:101A60005B455350383236365D205769466920C190
:101A7000ACBDD3B2CECAFD3A20535349443D2225D2
:101A800073222050415353574F52443D2225732215
:101A90000D0A00005B455350383236365D205769D9
:101AA000466920D2D1C1ACBDD3A1A30D0A0000006C
:101AB0005B455350383236365D20CAB9D3C3205403
:101AC000435020D6B1C1AC202B204D4355204D5161
:101AD000545420C4A3CABDA1A30D0A004000002095
:101AE0005B455350383236365D20D2D1CAB9D3C3A4
:101AF0002054435020D6B1C1ACCDEAB3C9204D51DA
:101B0000545420C1ACBDD32FB6A9D4C4A1A30D0A8F
:101B100000000000C04300082DE9F0410022012729
:101B20004FF0030C07FA02F50B682B40AB422CD1A7
:101B3000066853000CFA03F4A64306600E79D0F849
:101B400000809E4046EA080606600E79012E01D00C
:101B5000022E12D18668A64386604E79D0F808809E
:101B60009E4046EA080686604668AE434660456881
:101B70008E799640B6B235434560C568A543C560C9
:101B8000CC799C40C3681C43C460521C102AC9D342
:101B9000BDE8F08110B54B07DB0E9A40C90800EB99
:101BA0008100016A0F249C40A1430162016A114334
:101BB000016210BD4183704701837047FEE700005A
:101BC0004FF0E02000210161054A4FF47A7312685A
:101BD000B2FBF3F2521E426181610521016170473F
:101BE00000000020F0B58BB005460121802000F0F8
:101BF000B7FB0121082000F0C1FB4FF4E050099031
:101C000002278DF8287000268DF82A608DF82B6049
:101C10008DF829703D4C09A92046FFF77DFF02226F
:101C20000A212046FFF7B6FF02220B212046FFF7CC
:101C3000B1FF02220C212046FFF7ACFF0DB94FF493
:101C40007A7502F051F92904B0FBF1F4641C04B96F
:101C50000124B0FBF4F0B0FBF5F000B90120401E08
:101C6000B0F5803F01D34FF6FF70294D288006A8BC
:101C700000F074FE641EADF81840ADF81A602888B4
:101C80000790ADF82060234C06A9204600F028FEFE
:101C900001A800F013FE6021ADF804100121ADF899
:101CA0000610ADF81070039601A9204600F036FD2D
:101CB0000821204600F066FD01A9204600F068FDDD
:101CC0000821204600F0A8FD01A9204600F0AEFD45
:101CD0000821204600F0ECFD0121204600F0EAFC3E
:101CE0000021204600F0F4FD0021204600F0F2FD26
:101CF0000021204600F0F0FD0121204600F0F5FC17
:101D00000121204600F0E5FC0BB0F0BD001C0240B4
:101D100036000020000C0040642900D96421421ED6
:101D2000032A1FD2104A024402F8011C0E4A921ED6
:101D300013885A1C4A436421B2FBF1F29A4200D93B
:101D40001A4603460948012B06D0022B07D0032B65
:101D500008D191B200F0C0BD91B200F0B9BD91B20E
:101D600000F0B8BD7047000038000020000C0040B3
:101D700002F0E0B930B4104A1178104B002906D0B7
:101D800001290BD0022915D130BC00F0B5BB0121CF
:101D900051801870117030BC00F0AEBB5188FF2923
:101DA00003D84C1C5480585401E00220107030BC01
:101DB00000F0A2BB30BC704780000020340A002035
:101DC00007480178012908D00078022807D1054882
:101DD0008168491C816002F0ADB902F0B3B9704767
:101DE00080000020240A00200749C8888A88904281
:101DF00006D20246401CC8800448805C00F094BBB8
:101E00000021012000F028BB80000020340B0020BE
:101E100001498860704700008000002070B50C46C2
:101E2000002821D0002C1FD0A61CB6F5807F1BD81F
:101E300000220E4D03E0815CA954521C92B2A242D2
:101E4000F9D3214600F020F8010A295529194870D4
:101E5000074886800021C18000F03EFBBDE870404D
:101E60000121002000F0F8BA70BD0000340B002002
:101E70008000002002480168491C01607047000092
:101E800098000020FEE70000F0B5FF23FF240022A9
:101E9000074E06F5807706E0855C5D40735D634024
:101EA0007C5D521C92B28A42F6D344EA0320F0BD14
:101EB000A44100087CB501218DF8001003208DF8A5
:101EC000010000208DF802008DF803008DF8040059
:101ED0008DF8051006216846FFF7D6FF040AC5B243
:101EE00006A000F02BFF2A46214612A000F026FF94
:101EF00006216846FFF792FF7CBD00005B54585DE9
:101F000020536C61766531204C69676874202861C4
:101F10006464723D31207265616420686F6C64692D
:101F20006E67203430303031207174793D31293A78
:101F30000D0A0000202020202030312030332030B6
:101F400030203030203030203031202530325820C1
:101F5000253032580D0A00007CB502208DF80000B3
:101F600003218DF8011000218DF802100A228DF84E
:101F700003208DF804108DF8050006216846FFF750
:101F800083FF040AC5B206A000F0D8FE2A46214607
:101F900013A000F0D3FE06216846FFF73FFF7CBD8B
:101FA0005B54585D20536C617665322054656D70CA
:101FB00048756D2028616464723D322072656164E9
:101FC00020686F6C64696E672034303031317E3444
:101FD00030303132207174793D32293A0D0A0000D7
:101FE000202020202030322030332030302030415B
:101FF00020303020303220253032582025303258E1
:102000000D0A00007CB503208DF800008DF801005A
:1020100000208DF8020014218DF803108DF80400C3
:1020200001208DF8050006216846FFF72DFF040A00
:10203000C5B206A000F082FE2A46214611A000F09B
:102040007DFE06216846FFF7E9FE7CBD5B54585DC6
:1020500020536C61766533204D51322028616464D1
:10206000723D33207265616420686F6C64696E67CD
:10207000203430303231207174793D31293A0D0AE3
:10208000000000002020202020303320303320307A
:10209000302031342030302030312025303258206B
:1020A000253032580D0A000010B500F007FA502014
:1020B00000F020FAFFF75CFE0448FFF7A9FEBDE838
:1020C00010400349034800F001BA0000193F00081E
:1020D000314100082D4100081CB50121084600F0DF
:1020E0003FF90121084600F03BF90121084600F0C4
:1020F00037F91020009001208DF8040000208DF8A1
:10210000060002208DF807008DF805000E4C694688
:102110002046FFF701FD2021009169462046FFF788
:10212000FBFC8021009169462046FFF7F5FC102159
:102130002046FFF73FFD20212046FFF73BFD802191
:102140002046FFF739FD1CBD0000024010B5054CCC
:1021500010212046FFF72EFD2046BDE8104020212B
:10216000FFF72ABD0000024010B5FFF7B5FF00F0F1
:1021700021F800F03FF805490020087000F08AF8C7
:10218000BDE8104002A000F0D9BD00003B000020D7
:102190005B4D4F544F525D204D6F746F72206472CF
:1021A0006976657220696E697469616C697A6564C3
:1021B0002E0D0A001CB50121022000F0D1F80120EB
:1021C000009002208DF8040000208DF806008DF8A4
:1021D000070003208DF80500054C69462046FFF7EF
:1021E0009BFC022200212046FFF7D4FC1CBD00000E
:1021F0000004024030B589B00121022000F0BEF891
:102200005320ADF818000024ADF81A4040F2E73032
:102210000790ADF820408DF82240144D06A92846BD
:1022200000F05EFB6020ADF804000120ADF8060070
:10223000ADF808400394ADF81040ADF81240ADF889
:102240001440ADF8164001A9284600F0EFFA082125
:10225000284600F02DFB0121284600F02BFA012131
:10226000284600F036FA09B030BD000000040040F6
:10227000642800D96420054908704FF47A714843F6
:102280006421B0FBF1F1024800F026BB3B000020C6
:102290000004004010B5074C10212046FFF78AFCCF
:1022A00020212046FFF786FCBDE810400020FFF704
:1022B000DFBF000000000240704708B54FF4A06087
:1022C00000F042F825208DF8000001208DF8010073
:1022D0008DF802008DF80300684600F001F808BD93
:1022E00030B50F23C27801250178002A1FD0154A86
:1022F000126802F4E062C2F5E062C2F30722C2F1A2
:102300000404D3404278A24084781C401443220144
:1023100001F1E02181F80024007800F01F018D40D8
:102320004009800000F1E020C0F8005130BD01F00C
:102330001F0085404809800000F1E020C0F880516E
:1023400030BD00000CED00E002490843024908607E
:10235000704700000000FA050CED00E07047000037
:10236000054A002903D011680143116070471168C4
:10237000814311607047000030380240054A00294F
:1023800003D01168014311607047116881431160E7
:102390007047000040380240054A002903D0116808
:1023A000014311607047116881431160704700005C
:1023B0004438024070B5244B196801F00C01234CDD
:1023C00000291ED0224E04291DD008291DD00460EA
:1023D000196801F0F00109091E4A545C0168E140E6
:1023E00041601C6804F4E054A40A145D21FA04F46A
:1023F00084601B6803F460435B0BD25CD140C16016
:1024000070BD0460E4E70660E2E70F4A121F11683E
:10241000C1F38055116801F03F0135B1B6FBF1F110
:102420001468C4F38814614305E0B4FBF1F1146847
:10243000C4F3881461431268C2F30142521C520073
:10244000B1FBF2F10160C3E7083802400024F40058
:1024500040787D011400002070B50D46002801D0A1
:10246000012200E00022134E40F22551304600F0D8
:1024700082FB114C207840B13DB9012060700122EF
:1024800040F22661304600F076FB002D02D04FF07E
:10249000010101E04FF00001217002D04FF0010274
:1024A00001E04FF000023046BDE8704040F2277175
:1024B00000F061BB004400408C00002010B501F02A
:1024C00037FCBDE8104001F0ABBC0000014A506091
:1024D000916070478C00002010B50120FEF73CFB96
:1024E000BDE810404FF480710148FFF765BB000064
:1024F0000004024001F05EBC10B50A4C00212046E9
:1025000000F0ECF90121204600F0E0F8012211462C
:10251000204600F0F8F82046BDE81040012100F008
:10252000D8B800000010004005490988090604D504
:102530000349091D088001207047002070470000F2
:1025400000440040704700001CB50021019100913B
:102550002E4A106840F4803010604FF4A043106899
:1025600000F4003000900198401C0190009810B9D0
:1025700001989842F3D11068800302D501200090A1
:1025800000E00091009801283FD1204840300168C8
:1025900041F0805101601E49086840F440400860E5
:1025A0001A48083003680360036843F4004303607B
:1025B000036843F4A0530360041F164B23601368A1
:1025C00043F08073136013689B01FCD50A6842F4E2
:1025D00080320A604A68D203FCD50A6842F40032AD
:1025E0000A604A689203FCD50B4A40F205711160FB
:1025F000016821F003010160016841F002010160FE
:102600000168C1F381010229FAD11CBD00380240E2
:1026100000700040195A4007003C0240FFF72ABCF6
:1026200010B51248016841F470010160104801685A
:1026300041F0010101600E4A002108321160026878
:102640000C4B1A400260031D0B4A1A60026822F408
:102650008022026006480C300160FFF775FF0349D5
:102660004FF000608039086010BD000088ED00E088
:1026700000380240FFFFF6FE1030002410B50C4C6D
:102680000121204600F033F8002810D00121204617
:1026900000F01CF800220121204600F034F800214F
:1026A000204600F016F8BDE81040FFF789BB10BDCA
:1026B00000100040002904D0018841F08001018011
:1026C0007047018821F0800101807047C943018271
:1026D0007047002904D0018841F001010180704752
:1026E000018821F001010180704781827047024614
:1026F0000020138A0B4092890A40002B02D0002A46
:1027000000D001207047002A03D082890A438281C9
:10271000704782898A4382817047000030B5028CFD
:1027200022F001020284058C8388028B22F0700261
:1027300022F003020C88144325F002028D89154310
:102740004A882A430D4DA84202D00D4DA8420FD110
:1027500022F00805CA892A4322F004058A882A4300
:1027600023F4807323F400730D8A1D434B8A2B439B
:102770008380048389684163028430BD0000014086
:1027800000040140028B22F008020A4302837047D2
:1027900070B5028C22F010020284028C8388048BB4
:1027A00024F4E04424F440760D884FF6FF7404EAE4
:1027B0000525354322F020028E8904EA06161643C9
:1027C0004A8804EA02123243114EB04202D0114E3E
:1027D000B04217D122F08002CE8904EA06161643D1
:1027E00026F040068A8804EA0212324323F480630A
:1027F00023F400630E8A04EA86061E434B8A04EA29
:10280000830333438380058389688163028470BDB9
:102810000000014000040140028B22F400624FF6E8
:10282000FF7303EA012111430183704770B5028CE5
:1028300022F480720284028C8388848B24F07004DA
:1028400024F003040D88254322F400728E894FF68C
:10285000FF7404EA062616434A8804EA0222324339
:10286000114EB04202D0114EB04217D122F4006690
:10287000CA8904EA0222324322F480668A8804EA82
:102880000222324323F4805323F400530E8A04EAD5
:1028900006161E434B8A04EA031333438380858361
:1028A0008968C163028470BD0000014000040140DA
:1028B000828B22F008020A43828370470021018044
:1028C0004180818081608181C18101824182704724
:1028D0004163704781637047C163704741627047CD
:1028E00030B50288164C174DA0420DD0A8420BD02F
:1028F000B0F1804F08D0144B984205D0134B98424A
:1029000002D0134B984203D122F070034A881A4335
:10291000104B984206D0104B984203D022F44073DB
:102920000A891A4302804A68C2620A880285A04264
:1029300001D0A84201D1897A01860121818230BD6E
:102940000000014000040140000400400008004075
:10295000000C004000100040001400404FF0FF3118
:102960004160002101800181418081727047000037
:1029700070B5174D40F225563146284600F0DBF879
:10298000002823D0284600F06FF9C2B2114C2078FD
:10299000B0B900200D2A0AD00A2A08D061887F2900
:1029A0000DD26388581C60800B48C25408E06188CF
:1029B00019B16188A18001212170608000E06080F0
:1029C00031462846BDE8704000F09AB870BD00005E
:1029D0000010014030000020A000002070B5224D02
:1029E00040F226663146284600F0A5F81F4C80B11B
:1029F0003146284600F084F8627852B100226270B5
:102A0000A9151B48FFF7D6F800223146284600F0EA
:102A1000B2F840F225563146284600F08CF858B1FD
:102A2000284600F021F9C0B2A070626802B1904758
:102A30003146284600F064F840F2277631462846B1
:102A400000F079F800280ED0A06808B1804704E0B3
:102A500000223146284600F08EF831462846BDE86F
:102A6000704000F04DB870BD004400408C00002064
:102A70000004024038B5204D40F22551284600F0B0
:102A80005AF81E4CB8B1284600F0EEF8C2B2B4F8BD
:102A9000000440F2FF31C0F30E0088420BD2B4F8BC
:102AA0000004B4F80034C0F30E01481C60F30E03B8
:102AB000A4F80034625440F22441284600F03BF868
:102AC000002818D0288800900B48001D008800902E
:102AD000B4F80004C0F30E00B0F5806F05D2B4F86E
:102AE00000140020C1F30E016054B4F8000440F457
:102AF0000040A4F8000438BD004800402001002038
:102B000040F66A120A0A01219140C94301807047C8
:102B1000002904D0818941F4005181817047818965
:102B200021F40051818170470246002012880A4238
:102B300000D00120704770B5002440F66A12C1F33E
:102B4000421301F01F05012606FA05F2012B0CD0F5
:102B5000022B0DD0838A1340090A8E400088304032
:102B60000BB100B10124204670BD83891340F3E707
:102B7000038A1340F0E710B540F66A13C1F342131D
:102B800001F01F040121A140012B07D0022B07D027
:102B900014303AB102680A43026010BD0C30F8E705
:102BA0001030F6E702688A43026010BD7FB5044624
:102BB0000D46208A20F44051E88808432082A089ED
:102BC00041F20C618843A9882A8911436A8902432A
:102BD0001143A181A08A20F44071A8890843A082F2
:102BE0006846FFF7E7FB1E48844202D01D48844236
:102BF00001D1039800E00298A189090408D500EBEF
:102C0000C00101EB001029684900B0FBF1F007E0BA
:102C100000EBC00101EB001029688900B0FBF1F066
:102C20006422B0FBF2F109010B096FF018056B4348
:102C300000EB8300A3891D044FF0320307D503EB9B
:102C4000C000B0FBF2F000F00700084306E003EB21
:102C50000010B0FBF2F000F00F00084320817FBDB0
:102C600000100140001401408088C0F30800704744
:102C7000C1F30801818070474FF4165101600021B3
:102C80008180C18001810C224281818170470000D6
:102C900070B586B001210846FFF762FB01211020C4
:102CA000FFF77AFB00248DF8164001208DF81700FD
:102CB00002258DF815508DF81450400204901C4EDA
:102CC00004A93046FEF728FF8DF8145069020491DC
:102CD00004A93046FEF720FF07220A213046FEF7FE
:102CE00059FF072209213046FEF754FF4FF4E13027
:102CF0000090ADF80440ADF80640ADF80840ADF8DE
:102D00000C400C20ADF80A000A4C69462046FFF73B
:102D10004DFF01212046FFF7FBFE012240F2255125
:102D20002046FFF728FFFFF7C8FA06B070BD000085
:102D30000000024000100140FEE700000FB4054B08
:102D400010B503A9044A029800F022F910BC5DF8FE
:102D500014FB0000153900089C0000200FB47CB55E
:102D60000C0009AD01D0611E00E00021CDE9000199
:102D7000064B6A462946089800F00AF9002C02D052
:102D8000009A002111707CBC5DF814FB9736000896
:102D90000FB4084B10B504A902AA039800F0F8F884
:102DA000044602A9002000F081FC204610BC5DF81A
:102DB00014FB0000AD3600087CB50C001D4616461D
:102DC000014601D0601E00E00020CDE90010064B56
:102DD0006A462946304600F0DBF8002C02D0009A03
:102DE000002111707CBD00009736000802E008C881
:102DF000121F08C1002AFAD170477047002001E075
:102E000001C1121F002AFBD1704700002DE9FF5FAE
:102E100082B00021DDE90430020DDDF840B003434B
:102E200018D044F61050A2F2FF3242431514119804
:102E300001281FD0A5EB0B00401C5FEA000A4FF0F1
:102E400000064E4FDFF83891B046504615D5CAF10E
:102E5000000413E0119801244AA3012801D16FEA6C
:102E60000B010298119AC0E90031C0E9024206B094
:102E7000BDE8F09FCBF10000DFE704460021404AA7
:102E8000491842EB0450CDE9001012E0E00707D0EA
:102E900032463B4640464946FDF7F8FA80468946A9
:102EA00032463B4610461946FDF7F0FA06460F46F5
:102EB0006410002CEAD1DDE90401DDE90023BAF158
:102EC000000F06DAFDF7E2FA42464B46FDF7DEFA5E
:102ED00005E0FDF74DFB42464B46FDF749FB044636
:102EE0000E460022284BFDF7CBFB03D84FF0FF30F6
:102EF000014607E00022254B20463146FDF71FFA28
:102F0000FDF7A5FB102409E0002C0ADB0A220023B0
:102F1000FDF7E4F9039B30321A55641E50EA0102B2
:102F2000F2D1641C039AC4F111031444119A012ACA
:102F300003D0012208430DD10AE0084304D0002049
:102F40004FF0110B119072E7A3EB0B056D1E0DE016
:102F50005B4504DD4FF0000205F1010504E003DAF2
:102F60004FF00002A5F10105002AECD0029811995A
:102F7000C0E90231C0E9004579E7000000001440D3
:102F80000000F03F300000000000F0430000E03F90
:102F90002DE9FF4F95B09A46884606460025EEE19A
:102FA000252877D100242746F94A0121039400E01F
:102FB000044316F8013F203B01FA03F01042F7D119
:102FC00030782A2811D06FF02F033078A0F130022A
:102FD000092A16D8039A44F0020402EB820203EB9A
:102FE00042021044761C0390EFE758F8042B03923A
:102FF000002A03DA504244F40054039044F00204DF
:10300000761C30782E2816D116F8010F44F00404EF
:103010002A280DD06FF02F023078A0F13003092B51
:1030200009D807EB870302EB4303C718761CF3E7C5
:1030300058F8047B761C30786C280FD006DC4C28BE
:1030400017D068280DD06A2814D104E0742810D055
:103050007A280FD10DE044F400140AE044F48014FF
:1030600001E044F440147278824202D104F58014E5
:10307000761C761C307866280BD013DC582877D065
:1030800009DC002875D04528F6D04628F4D047281A
:103090001AD193E118E0632835D0642879D06528E7
:1030A00012D18BE1702873D008DC6728F1D0692831
:1030B0006FD06E280DD06F2806D1ACE073282CD0CD
:1030C000752874D0782853D05246179990476D1CB4
:1030D00054E1C4F30250022809D003280DD0D8F8D7
:1030E000001004280DD00D6008F1040846E1D8F85E
:1030F0000010EA17C1E90052F6E7D8F800100D8079
:10310000F2E70D70F0E718F8041B8DF800100020AE
:103110008DF80100EB46012003E058F804BB4FF0A6
:10312000FF3061074FF0000102D40DE009F1010109
:103130008946B9420FDA8145F8DB1BF809100029EE
:10314000F4D108E009F1010189468142FADB1BF85C
:1031500009100029F6D103985346A0EB0907214630
:103160003846179A00F080FA284400EB090507E07A
:1031700044E008E10DE01BF8010B52461799904717
:10318000B9F10109F7D2534621463846179AF2E0C1
:1031900039E00A21C4F302524FF0000B0091022AD9
:1031A00006D058F8040BC117032A09D00AE023E01F
:1031B00008F1070020F00702F2E80201904605E05E
:1031C00000B2C117042A01D140B2C117002906DAA2
:1031D0000A460021404261EB02012D2202E0220555
:1031E00004D52B228DF80420012203E0E20701D050
:1031F0002022F7E7914657E00A2100E010214FF026
:10320000000B00910BE010214FF0000B44F0040480
:103210000827009103E008204FF0000B0090C4F352
:103220000252022A05D058F8040B0021032A08D0C4
:1032300008E008F1070020F00702F2E802019046DA
:1032400003E080B2042A00D1C0B24FF00009220787
:103250002AD53278702A07D0DDF800C08CF0100C27
:103260005CEA0B0C05D00EE040228DF80420012210
:1032700008E050EA010306D030238DF804308DF8C1
:10328000052002229146009B83F0080353EA0B03BA
:103290000AD150EA010201D1620705D530228DF82A
:1032A00004204FF001097F1E3278582A04D039A239
:1032B0000C920CAA02920BE03BA2F9E75B46009A43
:1032C000FDF70CF80C9B9B5C029A521E0292137045
:1032D00050EA0102F2D1029804A9081A00F1200B69
:1032E000600702D524F4803400E001275F4502DD49
:1032F000A7EB0B0000E0002000EB0B01009003980F
:103300004944401A0390E00306D453462146179AD5
:10331000039800F0A9F90544002706E001A85246E9
:10332000C05D179990476D1C7F1C4F45F6DBE0038D
:103330000CD553462146179A039800F095F9054499
:1033400004E030205246179990476D1C0099481EA2
:1033500000900029F5DC08E00298029952460078B6
:10336000491C0291179990476D1CBBF10001ABF10C
:10337000010BF1DC5BE100F065F90544761C307867
:1033800000287FF40DAE19B02846BDE8F08F00008C
:10339000092801003031323334353637383961622B
:1033A00063646566000000003031323334353637EF
:1033B000383941424344454600000000600700D4CC
:1033C000062708F1070020F00700F0E802238046F6
:1033D00003F0004C5FEA0C0001D097A009E0200543
:1033E00001D596A005E0E00701D095A001E0AFF27D
:1033F0004C001390307823F0004365280CD006DC95
:10340000452809D046281DD047287FD13BE06628B3
:1034100018D067287AD136E00021112F01DB112066
:1034200000E0781CCDE9000104A90CA8FFF7EEFC30
:10343000DDE90D010C9A4FF0000B07F10109109224
:1034400000914EE04FF000400097CDE9011004A933
:103450000CA8FFF7DBFCDDE90D020C9B0F994FF088
:10346000000B91461093009211B9791C00EB0109F1
:10347000B7EB090003D4C0F1FF3B07F10109A9EB49
:103480000700019042E0012F00DA01270021112FEF
:1034900001DD112000E03846CDE9000104A90CA8A7
:1034A000FFF7B4FCDDE90D010C9A00914FF0000B21
:1034B000B946109221070FD4009A4A4503DA914683
:1034C00001E0A9F10109B9F1010F05DD109AA9F197
:1034D0000101515C3029F4D0B84202DA10F1040F36
:1034E00003DA0121CDE9011010E0002803DC834458
:1034F000A9EB000102E0411C494500DD8946A0EB33
:103500000B00401C01904FF000400290200705D4B2
:103510000198484502DB4FF0FF30019000208DF804
:103520004B0002980DF14B07B0F1004F25D002205F
:103530000C902B200D90029800280CDA404202904B
:103540002D200D9007E00A210298FCF7B1FE3031E2
:10355000029007F8011D0C99481E0C900029F2DC1E
:1035600002980028EFD1791E0D980870307800F08D
:10357000200040F0450007F8020D11A8C01BC01D37
:1035800002901398007800B1012000EB0901019826
:1035900001EBE071029801440398401A401E039029
:1035A000E00306D453462146179A039800F05CF8CE
:1035B00005441398007818B15246179990476D1C2E
:1035C000E00323D553462146179A039800F04CF8A0
:1035D00005441BE0BBF1000F07DB0098584504DDF4
:1035E0001098179910F80B0001E0179930205246F7
:1035F000904701980BF1010B401E05F10105019068
:1036000004D12E205246179990476D1CB9F1000144
:10361000A9F10109DEDC05E017F8010B5246179904
:1036200090476D1C0299481E02900029F4DC534615
:103630002146179A03989EE62D0000002B000000FB
:10364000200000002DE9F041044600251E461746E3
:10365000880404D405E039462020B0476D1C641E60
:10366000F9D52846BDE8F0812DE9F0410446002552
:103670001E469046C80301D5302700E02027880465
:1036800004D505E041463846B0476D1C641EF9D5A7
:103690002846BDE8F0814A68002A06D00A68531C13
:1036A0000B6010704868401E486070470A68531CE1
:1036B0000B601070704710B50C4600F009FC30B17B
:1036C000017A39B10CB1C0882080002010BD4FF0C4
:1036D000FF3010BD6FF0010010BD000010B51446A2
:1036E00000F0E0FB002802DA4FF0FF3010BD00EBE5
:1036F0008001044800EB4100C480012101720020D8
:1037000010BD0000420000202DE9F84F0546DDE91C
:103710000A86894692461F462A482BA100F0E8FAFD
:10372000042100F8011B022417B1397801B1822469
:10373000B8F1000F04D098F8001009B144F040042B
:103740000470310A41708670C01C1E49461A01F18E
:103750008000514600F0CCFA210602D5394600F02F
:10376000C7FA610602D5414600F0C2FA1549803118
:10377000471A06EB07084146684600F0A7FA0446D8
:1037800004EB0800401C484503D94FF0FF30BDE86A
:10379000F88F1021297005F101082246694640463C
:1037A000FCF722FD4444324606492046FCF71CFD46
:1037B000344404493A4680312046FCF715FDE019AF
:1037C000401BE4E7220800204D5154540000000043
:1037D0002DE9F84F8B46804611469A4644461848D4
:1037E00000F086FA1649461A5046FCF73DFD07469A
:1037F00006EB07094946684600F068FA054605EBFE
:103800000900401C584503D94FF0FF30BDE8F88F40
:10381000302004F8010B2A4669462046FCF7E4FCF8
:103820002C44324606492046FCF7DEFC34443A4636
:1038300051462046FCF7D8FCE019A0EB0800E5E76C
:10384000220800202DE9FC47884604461946100A44
:103850008DF804008DF80520174800F049FA002182
:1038600000F8011B4FF002091349451AAF1C3946F5
:10387000684600F02BFA0646F019401C404503D973
:103880004FF0FF30BDE8FC8782212170671C324673
:1038900069463846FCF7A8FC3E444A4601A9304632
:1038A000FCF7A2FCB61C2A4603493046FCF79CFCF8
:1038B0007019001BE6E70000A208002070B504465E
:1038C0000D4611A11248FCF7B3FC20B1401D0022A7
:1038D0006FF02F0608E04FF0FF3070BD02EB820161
:1038E00006EB41015A18401C0378A3F13001092965
:1038F000F4D901783A2902D06FF0010070BD401C64
:1039000020602A80002070BD2B4950442C0000000C
:103910002001002070B50446064DE1B22846FFF7AD
:10392000A7F980212846FFF7FFF80028F9D02046A4
:1039300070BD000000100140FFF7AAF94FF47A7043
:10394000FEF750F9FEF73CF9FEF7AEFBFCF7ACFFD3
:103950000BA00DA1FDF7C4FFFEF7ACFA6420FDF744
:10396000FBF8FEF7F9FA6420FDF7F6F8FEF74AFBDC
:103970006420FDF7F1F8FCF73BFFFDF785FAEBE774
:103980004369616C6C6F7E003064303030373231A7
:10399000000000002DE9F041D4B040F25B7267A155
:1039A00052A8FFF7F5F9052352AA65A10020FDF7FB
:1039B0000FFAC0B178206B49CDE900104FF4407880
:1039C00069A36CA241466D48FFF79EFE002811DDF9
:1039D00081B26A48FDF7F0F860B1002400260025A6
:1039E0004FF4FA671EE066A0FFF7A8F9002054B074
:1039F000BDE8F0816AA0FFF7A1F90020F7E7642095
:103A0000FDF7AAF864342995289528A929A8FFF775
:103A100055FF38B9BDF8A000042803D329980078D1
:103A2000202819D0BC42EAD326B352A34EA265A1E6
:103A30002AA8FFF7ADF92AAB012241464F48FFF70C
:103A400001FF00281BDD81B24C48FDF7B5F8B0B18D
:103A500000244FF47A762AE0BDF8A010299800F0EF
:103A600059F9014621B161A0FFF768F90020BEE7CE
:103A70000126D9E763A0FFF761F90020B7E769A045
:103A8000FFF75CF90020B2E76420FDF765F86434C5
:103A90002995289528A929A8FFF710FF38B9BDF85E
:103AA000A000052803D329980078902816D0B442A6
:103AB000EAD330A32CA263A102A8FFF769F902ABF5
:103AC000022241462D48FFF7BDFE002810DD81B2DD
:103AD0002A48FDF771F858B1002421E0BDF8A01084
:103AE0002998084410F8011C5EA0FFF727F9E0E7C9
:103AF00065A0FFF723F9002079E76420FDF72CF893
:103B0000643401950095694601A8FFF7D7FE38B9DE
:103B1000BDF80000052803D301980078902803D051
:103B2000B442EAD3012062E7BDF8001001980844CE
:103B300010F8011C5CA0FFF701F9F3E72564000011
:103B4000754371323164667368582E6D7174747385
:103B50002E6163632E636D63636F6E656E65742E95
:103B6000636E000028440008754371323164667347
:103B7000685800005465737431000000220500206D
:103B80005B4D5154545D5B4552524F525D2054433E
:103B90005020C1ACBDD3CAA7B0DC0D0A00000000A4
:103BA0005B4D5154545D5B4552524F525D20434F23
:103BB0004E4E45435420B7A2CBCDCAA7B0DC0D0A68
:103BC00000000000247379732F25732F25732F7441
:103BD00068696E672F70726F70657274792F706F7D
:103BE00073742F7265706C79000000005B4D515446
:103BF000545D20434F4E4E41434B2072633D25643C
:103C00000D0A00005B4D5154545D5B4552524F52BA
:103C10005D20CEB4CAD5B5BD20434F4E4E41434B77
:103C20000D0A00005B4D5154545D20B6A9D4C42048
:103C3000706F73742F7265706C7920CAA7B0DC0D39
:103C40000A000000247379732F25732F25732F74B6
:103C500068696E672F70726F70657274792F736503
:103C6000740000005B4D5154545D20535542414354
:103C70004B28706F73742F7265706C792920726392
:103C80003D25640D0A0000005B4D5154545D20B683
:103C9000A9D4C42070726F70657274792F736574C3
:103CA00020CAA7B0DC0D0A005B4D5154545D20536F
:103CB000554241434B2870726F70657274792F734F
:103CC0006574292072633D25640D0A0010B5034612
:103CD000002001F07F02C909002901D042F08002D2
:103CE000044600F101001A5501D00428F1D310BD9B
:103CF00070B505460E463046FCF7B6FA84B2200A87
:103D000028706C70AD1C224631462846FCF76CFAD0
:103D1000281970BD042902D24FF0FF307047017896
:103D2000202902D06FF001007047C0787047000072
:103D30002DE9FC4101210A20FEF712FB1B4F07224F
:103D400005213846FDF726FF072206213846FDF7F4
:103D500021FF02248DF8044000258DF8065001262D
:103D60008DF807608DF805402020009069463846A0
:103D7000FDF7D2FE4020009069463846FDF7CCFEA4
:103D80008DF804608DF806508DF807508DF80540C9
:103D9000E4010094064D69462846FDF7BDFE214624
:103DA0002846FDF707FFBDE8FC810000000C02403B
:103DB000000402407FB5044601211020FEF7DEFA20
:103DC00001A8FEF7CBFD41F26700ADF804000CB18D
:103DD000641E00E0002402940024ADF80C40ADF80D
:103DE00006400E4D01A92846FEF77AFD012128461E
:103DF000FEF76CFC002201212846FEF784FC3620E9
:103E00008DF8000006208DF801008DF80240012099
:103E10008DF803006846FEF763FA7FBD001000408E
:103E200030B585B001214804FEF7A8FA01A8FEF7D5
:103E300023FF4FF4165001904FF48050ADF8080066
:103E40000024ADF80A408010ADF80C000C20ADF84D
:103E50000E00ADF81040124D01A92846FEF7A6FE4F
:103E6000012240F225512846FEF785FE002240F24D
:103E700027712846FEF77FFE26218DF800100521C8
:103E80008DF801108DF8024001218DF8031068466D
:103E9000FEF726FA01212846FEF73AFE05B030BDAE
:103EA0000044004030B503460020084C00EB80027F
:103EB00004EB420255789D4202D152888A4204D0D6
:103EC000401C0628F2D34FF0FF3030BD42000020E6
:103ED000062801D300207047024900EB800001EB67
:103EE0004000704742000020094802680948006805
:103EF000C0F38220042801D2012102E0C01E01216A
:103F00008140B2FBF1F0012900D040007047000071
:103F100000000020083802402DE9F04104468846A0
:103F2000002C76D0B8F1050F73D32778607801069E
:103F300006D5A2783946BDE8F04137A0FEF7FEBEAF
:103F4000032866D1A678022E63D3F01C804560D387
:103F500041463DA0FEF7F2FE002505E0615D43A06D
:103F6000FEF7ECFE6D1CADB24545F7D335A0FEF76C
:103F7000E5FE012F16D0022F27D0032F49D1022EA4
:103F800047D32079E17840EA0124224649F6554199
:103F90000320FFF7A3FB22462146BDE8F04135A0F0
:103FA000FEF7CCBE022E34D32079E17840EA01241A
:103FB000224649F641410120FFF790FB2246214667
:103FC000BDE8F04137A0FEF7B9BE042E21D3207919
:103FD000E17840EA01252A4649F64B410220FFF7E5
:103FE0007DFB2A4629463BA0FEF7A8FEA079617911
:103FF00040EA0124224649F64C410220FFF76EFBBD
:104000002246214600E004E0BDE8F0413CA0FEF776
:1040100095BEBDE8F08100005B52585D20536C6195
:104020007665257520457863657074696F6E2072BA
:104030006573706F6E73653A20636F64653D3078A9
:10404000253032580D0A00005B52585D20436F6DD9
:10405000706C657465206672616D65202825752019
:104060006279746573293A200000000025303258C7
:10407000200000005B52585D20536C617665332050
:104080005265673430303231284D51322070706DB6
:1040900029203D2025752028307825303458290DD9
:1040A0000A0000005B52585D20536C617665312038
:1040B0005265673430303031284C6967687420416C
:1040C000444329203D202575202830782530345858
:1040D000290D0A005B52585D20536C6176653220D1
:1040E00052656734303031312854656D7029203D78
:1040F0002025752028307825303458290D0A0000F5
:104100005B52585D20536C6176653220526567348E
:10411000303031322848756D29203D202575202802
:10412000307825303458290D0A000000FDF722BEF2
:10413000FDF75ABE0248002141800170704700001F
:104140008000002070B5104D104C6988042914D3EC
:1041500004F11000FDF798FE18B16068401C606023
:104160000EE06888801E81B2AA6812B1074810303C
:1041700090472068401C206002E0E068401CE0603E
:10418000BDE87040FFF7D6BF80000020240A002061
:10419000A4430008AC430008B443000810440008DE
:1041A0001844000800C1814001C0804101C0804125
:1041B00000C1814001C0804100C1814000C18140F7
:1041C00001C0804101C0804100C1814000C18140E7
:1041D00001C0804100C1814001C0804101C08041D7
:1041E00000C1814001C0804100C1814000C18140C7
:1041F00001C0804100C1814001C0804101C08041B7
:1042000000C1814000C1814001C0804101C08041A6
:1042100000C1814001C0804100C1814000C1814096
:1042200001C0804101C0804100C1814000C1814086
:1042300001C0804100C1814001C0804101C0804176
:1042400000C1814000C1814001C0804101C0804166
:1042500000C1814001C0804100C1814000C1814056
:1042600001C0804100C1814001C0804101C0804146
:1042700000C1814001C0804100C1814000C1814036
:1042800001C0804101C0804100C1814000C1814026
:1042900001C0804100C1814001C0804101C0804116
:1042A00000C1814000C0C101C30302C2C60607C7E6
:1042B00005C5C404CC0C0DCD0FCFCE0E0ACACB0B56
:1042C000C90908C8D81819D91BDBDA1A1EDEDF1F86
:1042D000DD1D1CDC14D4D515D71716D6D21213D376
:1042E00011D1D010F03031F133F3F23236F6F73726
:1042F000F53534F43CFCFD3DFF3F3EFEFA3A3BFB16
:1043000039F9F83828E8E929EB2B2AEAEE2E2FEFC5
:104310002DEDEC2CE42425E527E7E62622E2E32335
:10432000E12120E0A06061A163A3A26266A6A76765
:10433000A56564A46CACAD6DAF6F6EAEAA6A6BABD5
:1043400069A9A86878B8B979BB7B7ABABE7E7FBF05
:104350007DBDBC7CB47475B577B7B67672B2B373F5
:10436000B17170B0509091519353529296565797A5
:10437000559594549C5C5D9D5F9F9E5E5A9A9B5B95
:1043800099595898884849894B8B8A4A4E8E8F4F45
:104390008D4D4C8C448485458747468682424383B5
:1043A0004181804053414645000000005741524E34
:1043B000494E4700435249544943414C00000000D4
:1043C0005B455350383236365D5B4552524F525D35
:1043D0002054435020D6B1C1AC202B204D51545411
:1043E00020CED5CAD6CAA7B0DC2CC7EBBCECB2E94C
:1043F0002042726F6B657220D3F2C3FB2FB6CBBF26
:10440000DAD3EBCDF8C2E7C1ACCDA8D0D40D0A0009
:104410002269642200000000227265717565737460
:104420005F6964220000000076657273696F6E3DFB
:10443000323031382D31302D3331267265733D7075
:10444000726F6475637473253246754371323164DB
:1044500066736858253246646576696365732532EC
:104460004654657374312665743D313835363138BC
:1044700038353836266D6574686F643D6D64352651
:104480007369676E3D344F564C423450614E6857E5
:104490007338754F65586F3976253242512533444C
:1044A000253344007B226964223A22313233222CA4
:1044B00022706172616D73223A7B2254656D7022A5
:1044C0003A7B2276616C7565223A25647D2C224800
:1044D000756D223A7B2276616C7565223A25647D82
:1044E0002C224C69676874223A7B2276616C756570
:1044F000223A25757D2C224D5132223A7B2276615B
:104500006C7565223A25757D2C224572726F722278
:104510003A7B2276616C7565223A25757D7D7D003A
:104520004045000800000020A0000000EC2D00081D
:10453000E0450008A000002098130000FC2D0008B2
:104540000095BA0A00000000000000000102030408
:104550000607080900000000010203040102030429
:104560000607080900000501000000000000000027
:10457000000000000000000000000000000000003B
:1045800000000001419C0000FFFF000001024B9C65
:104590000000FFFF000002024C9C0000FFFF000033
:1045A0000303559C0000FFFF000004045F9C000013
:1045B000FFFF00000504609C0000FFFF00000000FA
:1045C00000000000000000000000000000000000EB
:1045D00000000000000000000000000000000000DB
:04000005080001AD41
:00000001FF
